:100000000C942D230C945E230C945E230C945E239D
:100010000C945E230C945E230C945E230C945E235C
:100020000C945E230C9419910C9423910C94B5902C
:100030000C945E230C945E230C945E230C945E233C
:100040000C945E230C94D4480C945E230C945E2391
:100050000C945E230C945E230C94AEC20D94EA03C0
:100060000C945E230C9469EC0C945E230C945E2338
:100070000C945E230C945E230C945E230C945E23FC
:100080000C94E1500C945E230C945E230C945E233C
:100090000C945BEC0C945E230C945E230C945E2316
:1000A0000C945E230C945E230C94B3500C945E234A
:1000B0000C945E230C945E230C945E230C94855068
:1000C0000C945E230C945E230C945E230C94AEEC93
:1000D0000C945E230C945E230C944DEC0C945E23E4
:1000E0000C945E236F3CC43F2042C6445D447E4472
:1000F00049444944C644C644C644C644C644C644AA
:10010000C644C6449F44A844B144BF44C3447C3C55
:10011000853C893C8F3C993CA33CAD3CC644C13CEA
:10012000CA3CD23CDA3CED3CF23C1C3D333D4B3DFD
:100130006C3DC644733D783D923DC644A93DC644DE
:10014000C644C644C644DE3E013FC644C644C64417
:10015000C644C644243F2D3F363F3F3F483F513FB2
:10016000633F5A3FC644C644C644C644C644C64418
:100170006C3FB73C773F853FC644933FA43FB53FB4
:10018000C644C644C644C644C644C644C644DC3D10
:10019000E03DE43D773E9F3ED43DD83DB3A4F0A47E
:1001A000E0A51BA67BA7B6A7B9A7620164019E01C3
:1001B00068016A019A017801880192019001940115
:1001C000A401A2016E019A018401A6018601960193
:1001D0009801A00182018A017E0160018C018E01DB
:1001E0009C017201700180017A017E0166017C012F
:1001F0006C01084AD73B3BCE016E84BCBFFDC12FCA
:100200003D6C74319ABD56833DDA3D00C77F11BE07
:10021000D9E4BB4C3E916BAAAABE000000803F050A
:10022000A84CCDB2D44EB93836A9020C50B991863B
:1002300088083CA6AAAA2ABE000000803F08000049
:1002400000BE922449123EABAAAA2ABECDCCCC4C09
:100250003E00000080BEABAAAAAA3E00000000BF7C
:10026000000000803F0000000000084178D3BB433D
:1002700087D1133D190E3CC3BD4282AD2B3E68ECC5
:100280008276BED98FE1A93E4C80EFFFBE01C4FF4C
:100290007F3F000000000007634236B79BD8A71AD3
:1002A00039685618AEBAAB558C1D3CB7CC5763BDF8
:1002B0006DEDFD753EF6177231BF000000803F0006
:1002C0000D942E030D9467020D946A020D947F0322
:1002D0000D945D020D9463020D9493030D948E02B0
:1002E0000D945C030D9452030D94B0050D94D00B46
:1002F0000D946E020D9475030D9489030D949D0366
:100300000D946B030D941A030D9494020D949C02AA
:100310000D9472020D9424030D9436030D943E0344
:100320000D947C020D9478020D9480020D940603C6
:100330000D940B030D94A1020D9448030D945902E2
:100340000D9410030D948A020D9486020D94980268
:100350004E414E494E495459494E46CDCCCC3D0AAA
:10036000D7233C17B7D13877CC2B329595E6241F8D
:10037000B14F0A000020410000C84200401C462046
:10038000BCBE4CCA1B0E5AAEC59D7400407A10F319
:100390005A00A0724E18090010A5D4E80000E876B3
:1003A00048170000E40B54020000CA9A3B0000000A
:1003B000E1F505000080969800000040420F000023
:1003C00000A08601000000102700000000E80300E4
:1003D0000000006400000000000A000000000001AE
:1003E00000000000002C76D888DC674F0823DFC1AE
:1003F000DFAE59E1B1B796E5E3E453C63AE6519969
:100400007696E8E6C28426EB898C9B62ED407C6F91
:10041000FCEFBC9C9F40F2BAA56FA5F490055A2A48
:10042000F75C936B6CF9676DC11BFCE0E40D47FE54
:10043000F520E6B500D0ED902E0300943577050049
:1004400080841E080000204E0A000000C80C3333D0
:1004500033330F986E12831141EF8D2114893BE6DF
:100460005516CFFEE6DB18D1844B381BF77C1D9068
:100470001DA4BBE424203284725E228100C9F124D1
:10048000ECA1E53D27434F4D4D554E49434154495D
:100490004F4E0044525952554E004552524F5253FE
:1004A00000494E464F004543484F0047322F4733DF
:1004B0002062616420706172616D65746572730A97
:1004C00000205A3A200020593A2000426564205802
:1004D0003A20004D65736820706F696E7420636107
:1004E0006E6E6F74206265207265736F6C766564E2
:1004F0000A00456E642066696C65206C6973740A35
:1005000000426567696E2066696C65206C6973746A
:100510000A005344207072696E74696E67206279B4
:10052000746520004E6F74205344207072696E749D
:10053000696E670A002569730025696D2025697356
:10054000002569682025696D202569730025696487
:10055000202569682025696D202569730025697942
:1005600020256964202569682025696D2025697327
:10057000005072696E742074696D653A2000507283
:100580006F7465637465642050696E0A00A604A1E7
:10059000049A04930485046F6666004445425547F7
:1005A0003A004B494C4C45442E20004D313133200C
:1005B00053006F6B004361703A454D455247454EBD
:1005C00043595F5041525345523A300A00436170DB
:1005D0003A434153455F4C494748545F425249476B
:1005E00048544E4553533A300A004361703A544FD1
:1005F00047474C455F4C49474854533A300A0043FB
:1006000061703A534F4654574152455F504F5745DA
:10061000523A300A004361703A4C4556454C494EB7
:10062000475F444154413A310A004361703A5A5F8E
:1006300050524F42453A310A004361703A41555495
:100640004F4C4556454C3A310A004361703A50527E
:10065000494E545F4A4F423A310A004361703A5062
:10066000524F47524553533A300A004361703A4162
:1006700055544F5245504F52545F54454D503A31A6
:100680000A004361703A454550524F4D3A310A00D5
:100690004649524D574152455F4E414D453A4D6195
:1006A000726C696E20312E312E34202847697468AF
:1006B00075622920534F555243455F434F44455F70
:1006C00055524C3A68747470733A2F2F6769746886
:1006D00075622E636F6D2F4D61726C696E46697223
:1006E0006D776172652F4D61726C696E2050524F4B
:1006F000544F434F4C5F56455253494F4E3A312E5B
:1007000030204D414348494E455F545950453A4980
:1007100033504C55532045585452554445525F432D
:100720004F554E543A3120555549443A63656465F6
:10073000326132662D343161322D343734382D39FF
:100740006231322D6335356336326633363766664D
:100750000A002F2F20007A5F6D696E3A2000795FC2
:100760006D696E3A2000785F6D696E3A20005265BF
:10077000706F7274696E6720656E6473746F702039
:100780007374617475730A0053657474696E6720BD
:1007900054726176656C20416363656C6572617447
:1007A000696F6E3A200053657474696E67205265F4
:1007B000747261637420416363656C65726174690E
:1007C0006F6E3A200053657474696E6720507269C9
:1007D0006E7420416363656C65726174696F6E3A13
:1007E000200053657474696E67205072696E7420BE
:1007F000616E642054726176656C20416363656C40
:1008000065726174696F6E3A2000205A00205900A9
:10081000580020204D61783A2000205A00205900CD
:10082000580020204D696E3A20004F6E20004F6620
:100830006600536F667420656E6473746F70733AEC
:10084000200000013D3E3C36FF40410218FF434579
:100850004206FFFFFF0305FFFFFF3A3B39FFFF039F
:100860004404FF37FFFFFFFFFFFF206F7574206F09
:10087000662072616E67650A00536572766F2000AC
:100880003A200020536572766F200020643A0020E1
:10089000693A0020703A004D65736820706F696E88
:1008A000742063616E6E6F74206265207265736F71
:1008B0006C7665640A004D34323120696E636F7264
:1008C0007265637420706172616D65746572207504
:1008D000736167650A00000000000000000000006E
:1008E0000000546F6F206661722066726F6D207217
:1008F00065666572656E636520706F696E740A0067
:10090000204A756C20313220323031392031323A70
:1009100035383A353800646576656C6F00706572FD
:10092000202D592E00532E5A2E0061626C5F656E89
:1009300061626C65640061626C5F64697361626CC2
:1009400065003A20007A5F6D696E3A20202D3230C2
:10095000207A5F6D61783A20203230005A204F664D
:100960006673657420004E6F2063617365206C6947
:100970006768740A00556E6B6E6F776E20636F6DDB
:100980006D616E643A202200207A3A0020793A00A4
:10099000783A00534420636172642072656D6F760B
:1009A00065642E005344206361726420696E736530
:1009B000727465642E005461726765742066696C98
:1009C00065206F70656E206661696C2E00526566E9
:1009D00072657368206F6B2E0A007A70726F6265A1
:1009E0005F7A6F666673657420636F6D6669726D9A
:1009F0003A007A70726F62655F7A6F6666736574CB
:100A00003A000A4C6576656C696E672069732069E7
:100A10006E2070726F67726573732E004D353030C3
:100A2000004732380047323900473238000A4C65F7
:100A300076656C696E6720697320696E2070726FCD
:100A400067726573732E004D393939206F6B2E0A2A
:100A50000047323820583020593000473238205A69
:100A600030004732382059300047323820583000A3
:100A700047323800556E6B6E6F776E2E004D3530F5
:100A8000300024F4D43050C38E20C2A24017828B91
:100A90007011127A910D816CD90AA861E108C758CA
:100AA0006607615143061E4B5D05C145A7041A4107
:100AB0001104093D9803713931034036DB02653377
:100AC0009102D4305402802E1D02632CEE01752A4F
:100AD000C501B028A001102781018F2564012B24B6
:100AE0004B01E0223401AC211F018D200D01801F3C
:100AF000FC00841EED00971DDF00B81CD200E61B31
:100B0000C600201BBC00641AB200B219A8000A1962
:100B1000A0006A189900D117910040178B00B516F4
:100B2000840031167E00B31579003A157300C7149E
:100B30006F0058146A00EE136600881363002513D3
:100B40005E00C7125B006C12570015125400C111F1
:100B5000510070114F0021114B00D61049008D102B
:100B600047004610440002104200C00F4000800FB2
:100B70003E00420F3C00060F3B00CB0E3800930EA8
:100B800037005C0E3500270E3400F30D3200C10D26
:100B90003100900D3000600D2E00320D2D00050D3E
:100BA0002C00D90C2B00AE0C2900850C29005C0C04
:100BB0002700350C27000E0C2600E80B2400C40B80
:100BC0002400A00B23007D0B23005A0B2100390BBE
:100BD0002100180B2000F80A1F00D90A1E00BB0ACA
:100BE0001E009D0A1D00800A1D00630A1C00470AA2
:100BF0001B002C0A1B00110A1A00F7091A00DD0954
:100C00001900C4091900AB091900920917007B09E2
:100C10001800630917004C09160036091600200950
:100C200016000A091500F5081500E0081400CC08A4
:100C30001400B8081400A4081400900813007D08DC
:100C400012006B08130058081200460812003408FE
:100C50001100230811001208110001081100F0070B
:100C60001000E0071000D0071000C0071000B00708
:100C70000F00A107100091070E0083070F007407F3
:100C80000F0065070E0057070E0049070E003B07CF
:100C90000D002E070E0020070D0013070D0006079C
:100CA0000D00F9060C00ED060D00E0060C00D40660
:100CB0000C00C8060C00BC060C00B0060C00A40614
:100CC0000B0099060C008D060B0082060B007706C0
:100CD0000B006C060B0061060A0057060B004C0661
:100CE0000A0042060A0038060A002E060A002406F8
:100CF0000A001A060A001006090007060A00FD0588
:100D00000900F4050900EB050900E2050900D90511
:100D10000900D0050900C7050900BE050900B50591
:100D20000800AD050800A50509009C05080094050C
:100D300008008C050800840508007C05080074057F
:100D400008006C050700650508005D0507005605ED
:100D500008004E0507004705070040050800380554
:100D60000700310507002A050700230507001C05B9
:100D70000600160507000F05070008050600020516
:100D80000700FB040600F5040700EE040600E80473
:100D90000600E2040700DB040600D5040600CF04C9
:100DA0000600C9040600C3040600BD040600B7041B
:100DB0000600B1040500AC040600A6040600A00469
:100DC00005009B04060095040500900406008A04B3
:100DD000050085040500800406007A0405007504FA
:100DE0000500700405006B0405006604050061043D
:100DF00005005C04050057040500520405004D047D
:100E0000050048040500430405003E0404003A04BC
:100E1000050035040500300404002C0405002704F7
:100E20000400230405001E0404001A040400160430
:100E30000500110404000D04040009040500040465
:100E4000040000040400FC030400F8030400F4039D
:100E50000400F0030400EC030400E8030400E403CE
:100E60000400E0030400DC030400D8030400D403FE
:100E70000400D0030400CC030400C8030300C5032E
:100E8000030024F404D9201BC40C5C0E9804C4098C
:100E90005F0265077101F405F900FB04B300480423
:100EA0008700C10369005803550003034500BE02D3
:100EB0003A008402310053022A002902250004026C
:100EC0002000E4011C00C8011900AF0117009801BF
:100ED0001400840113007101100061011000510120
:100EE0000E0043010D0036010B002B010B00200109
:100EF0000B00150109000C01090003010800FB00AB
:100F00000800F3000800EB000700E4000600DE0024
:100F10000600D8000600D2000600CC000500C7007D
:100F20000500C2000500BD000400B9000400B500C2
:100F30000400B1000400AD000400A9000400A500F5
:100F40000300A20003009F0004009B000300980020
:100F500003009500020093000300900003008D0041
:100F600002008B000300880002008600020084005B
:100F70000300810002007F0002007D0002007B0070
:100F80000200790002007700010076000200740080
:100F9000020072000100710002006F0002006D008B
:100FA00001006C0002006A00010069000200670095
:100FB000010066000100650001006400020062009B
:100FC000010061000100600001005F0002005D009F
:100FD00001005C0001005B0001005A0001005900A3
:100FE00001005800010057000100560001005500A3
:100FF00001005400010053000000530001005200A2
:10100000010051000100500001004F0001004E009E
:1010100000004E0001004D0001004C0001004B009B
:1010200000004B0001004A00010049000100480097
:101030000000480001004700010046000000460093
:10104000010045000000450001004400010043008C
:101050000000430001004200000042000100410086
:10106000000041000100400001003F0000003F007F
:1010700001003E0000003E0001003D0000003D0078
:1010800001003C0000003C0000003C0001003B006F
:1010900000003B0001003A0000003A000100390066
:1010A000000039000100380000003800000038005E
:1010B0000100370000003700010036000000360054
:1010C000000036000100350000003500000035004A
:1010D000010034000000340000003400010033003F
:1010E0000000330000003300010032000000320035
:1010F000000032000100310000003100000031002A
:1011000001003000000030000000300001002F001E
:1011100000002F0000002F0000002F0001002E0013
:1011200000002E0000002E0001002D0000002D0008
:1011300000002D0000002D0001002C0000002C00FC
:1011400000002C0000002C0001002B0000002B00F0
:1011500000002B0000002B0001002A0000002A00E4
:1011600000002A0000002A000100290000002900D8
:1011700000002900000029000000290001002800CB
:1011800000002800000028000000280000002800BF
:1011900001002700000027000000270000002700B2
:1011A00000002700010026000000260000002600A5
:1011B0000000260000002600010025000000250098
:1011C000000025000000250000002500000025008B
:1011D000010024000000240000002400000024007E
:1011E0000000240001002300000023000000230071
:1011F0000000230000002300000023000000230063
:101200000100220000002200000022000000220055
:101210000000220000002200010021000000210047
:10122000000021000000210000002100000021003A
:10123000000021000100200000002000000020002C
:10124000000020000000200000002000000020001E
:101250000000200001001F0000001F0000001F0010
:1012600000001F0000001F0000001F0000001F0002
:1012700001001E0000001E0000001E0000001E00F5
:1012800000004D383420582059205A2045004B4941
:101290004C4C45442E20005072696E746572207368
:1012A000746F707065642064756520746F2065725A
:1012B000726F72732E20466978207468652065729B
:1012C000726F7220616E6420757365204D393939F3
:1012D00020746F20726573746172742E20285465B7
:1012E0006D706572617475726520697320726573C3
:1012F00065742E205365742069742061667465726C
:101300002072657374617274696E67290A004E6F8A
:10131000204C696E65204E756D6265722077697428
:101320006820636865636B73756D2C204C61737402
:10133000204C696E653A20004E6F20436865636BF0
:1013400073756D2077697468206C696E65206E75A1
:101350006D6265722C204C617374204C696E653A25
:101360002000636865636B73756D206D69736D61D3
:101370007463682C204C617374204C696E653A204C
:10138000004C696E65204E756D6265722069732030
:101390006E6F74204C617374204C696E65204E75BD
:1013A0006D6265722B312C204C617374204C696E18
:1013B000653A20004D313130004D3331004D383425
:1013C00020582059205A20450053442072656164FA
:1013D000206572726F720A00446F6E6520707269C8
:1013E0006E74696E672066696C650A0020496E76C6
:1013F000616C6964206578747275646572200000A0
:101400000000000000000000000000000096430003
:101410000096430000C8432066697273740A005A3C
:101420000059005800486F6D652000426C746F755C
:101430006368206572726F722E0053544F502063A0
:10144000616C6C65642062656361757365206F66AD
:1014500020424C546F756368206572726F72202D44
:1014600020726573746172742077697468204D39D5
:1014700039390A00426C746F756368206572726F47
:10148000722E0053544F502063616C6C656420626F
:10149000656361757365206F6620424C546F756398
:1014A00068206572726F72202D207265737461728C
:1014B000742077697468204D3939390A00205A3A06
:1014C000200020593A200042656420583A2000202C
:1014D0002020202046696C616D656E742072756EE7
:1014E0006F757431210A20202020204865617469BD
:1014F0006E67206E6F7A7A6C650A2020202020505B
:101500006C6561736520776169742E2E2E004669C3
:101510006C652064656C657465643A0044656C654F
:1015200074696F6E206661696C65642C2046696C15
:10153000653A20006F70656E206661696C65642C89
:101540002046696C653A2000202F002042403A0076
:1015500020403A0020573A0020573A00205A3A00DB
:1015600020593A0020436F756E7420583A00204588
:101570003A00205A3A0020593A00583A0044696625
:101580006665723A200046726F6D5374703A00536C
:101590007465707065723A00556E4C6576656C3A8C
:1015A000004C6576656C65643A00556E4C657665F1
:1015B0006C3A004C6576656C65643A005261773A26
:1015C00020202020000A4C6F676963616C3A000D8F
:1015D00000000E01000C000E01000E0D0000000EB8
:1015E000000C00DE15D915D415CF155D0A00626513
:1015F0006420706C616E65206E6F726D616C203D51
:10160000205B002020443D002020423D004C5346FA
:1016100020526573756C747320413D00436F756C87
:1016200064206E6F7420636F6D706C657465204C00
:1016300053462100496E73756666696369656E7409
:1016400020646174610A00646F6E650A00457874F5
:101650007261706F6C6174696E67206D6573682E5E
:101660002E2E00000000008A9DB8418A9D38422835
:10167000768A428A9DB842ECC4E64228760A43D96B
:101680008921438A9D38433BB14F43ECC466439E56
:10169000D87D4328768A4300009643D989A143B177
:1016A00013AD432C79693D002C78315F693D0020F2
:1016B0006F7574206F6620626F756E647320696E3B
:1016C000207A5F636F7272656374696F6E5F666FB5
:1016D000725F785F6F6E5F686F72697A6F6E746148
:1016E0006C5F6D6573685F6C696E65286C78303D02
:1016F0000078316C5F6900796900000000008A9D04
:10170000B8418A9D384228768A428A9DB842ECC404
:10171000E64228760A43D98921438A9D38433BB162
:101720004F43ECC466439ED87D4328768A4300002D
:101730009643D989A143B113AD432C2079315F6918
:101740003D002C2078693D00206F7574206F662065
:10175000626F756E647320696E207A5F636F727258
:10176000656374696F6E5F666F725F795F6F6E5FDE
:10177000766572746963616C5F6D6573685F6C69CF
:101780006E65286C79303D00786900796C5F69007E
:101790002D2D2D2D2D2D2D2D2D2D2D2D2D002029B7
:1017A000202020002C20002C20002C20002029208C
:1017B000202064657374696E6174696F6E3D2820C2
:1017C000002C20002C20002C2000202020206375DD
:1017D0007272656E743D28200020202066706D6D49
:1017E0003D00206D65736820736C6F7473206176A3
:1017F00061696C61626C652E0A003F496E76616CAE
:10180000696420736C6F742E0A004D6573682073D1
:101810006176656420696E20736C6F74200020739C
:101820006C6F743D00206D65736865735F656E64F1
:101830003D004532454E443D004D657368206C6F58
:10184000616465642066726F6D20736C6F74200034
:1018500048617264636F6465642044656661756C99
:10186000742053657474696E6773204C6F6164658E
:10187000640A00F4010000F401000064000000F4B8
:1018800001000000009643000096430000A04000C5
:1018900000C8410000A2420000A2420040C8439A92
:1018A00099BC4220204D383531205A005A2D5072B3
:1018B0006F6265204F666673657420286D6D293AE6
:1018C0000A0020440020490020204D3330312050B0
:1018D000005049442073657474696E67733A0A0056
:1018E00020460020420020480020204D3134352081
:1018F00053004D6174657269616C2068656174752F
:101900007020706172616D65746572733A0A0020AF
:101910006D65736865732E0A0A00454550524F4D38
:101920002063616E20686F6C6420007A5F6F66666A
:101930007365743A20000A416374697665204D65C9
:10194000736820536C6F743A200020204D3432307D
:101950002053003A0A00205A0020590020204D321E
:101960003036205800486F6D65206F666673657469
:101970003A0A00204500205A002059002058002033
:10198000420020540020204D323035205300416465
:1019900076616E6365643A20533C6D696E5F66657F
:1019A0006564726174653E20543C6D696E5F74724B
:1019B0006176656C5F66656564726174653E204240
:1019C0003C6D696E5F7365676D656E745F74696D9C
:1019D000655F6D733E20583C6D61785F78795F6A12
:1019E00065726B3E205A3C6D61785F7A5F6A657202
:1019F0006B3E20453C6D61785F655F6A65726B3E4A
:101A00000A0020540020520020204D323034205053
:101A100000416363656C65726174696F6E2028753F
:101A20006E6974732F7332293A20503C7072696E5C
:101A3000745F616363656C3E20523C7265747261D1
:101A400063745F616363656C3E20543C74726176BD
:101A5000656C5F616363656C3E0A00204500205A37
:101A60000020590020204D3230312058004D61783F
:101A7000696D756D20416363656C65726174696F32
:101A80006E2028756E6974732F7332293A0A00200C
:101A90004500205A0020590020204D323033205874
:101AA000004D6178696D756D20666565647261745D
:101AB00065732028756E6974732F73293A0A0020A4
:101AC0004500205A0020590020204D39322058006E
:101AD00053746570732070657220756E69743A0A6C
:101AE0000020204D3230302044300A0020204D327A
:101AF00030302044002044697361626C65640A00E0
:101B000046696C616D656E742073657474696E6787
:101B1000733A0020204D3134392043203B20556E4C
:101B200069747320696E2043656C736975730A006C
:101B30002020473231202020203B20556E697473CD
:101B400020696E206D6D0A005072696E7465722096
:101B500068616C7465642E206B696C6C2829206345
:101B6000616C6C6564210A005072696E7465722044
:101B700073746F707065642064756520746F206580
:101B800072726F72732E20466978207468652065C2
:101B900072726F7220616E6420757365204D3939E1
:101BA0003920746F20726573746172742E2028540A
:101BB000656D7065726174757265206973207265F8
:101BC0007365742E20536574206974206166746592
:101BD000722072657374617274696E67290A0053AA
:101BE00061766520656E7669726F6E6D656E7420C4
:101BF0004F4B2E2E2E005361766520656E766972EE
:101C00006F6E6D656E74204F4B2E2E2E00506F77C9
:101C1000657220627265616B210A00506F77657290
:101C200020627265616B2100FFFFFF7C3C3E5E2BF2
:101C30003D3F2F5B5D3B2C2A225C000000220025EB
:101C40000028002B002E00310034000201000005A6
:101C50000108010B01000020002300260029002CB0
:101C6000002F0032000001000003010601090105F8
:101C7000050505070508080808020202020A0A0805
:101C8000080404040401010101010101010303032B
:101C90000303030303040707070C0C0C0C0C0C0CC8
:101CA0000C0202020206060606060606060B0B0BCF
:101CB0000B0B0B0B0B01021020200808102040100A
:101CC0002040800201020108040201010204081000
:101CD000204080804020100804020180040201801E
:101CE0004020100804020108040201010204081047
:101CF000204080010204081020408000000A0B02EE
:101D0000090C0D0E0807030401000000000000008C
:101D100000000000000000000000000000000000C3
:101D20000000000000000012111000000000000080
:101D300000000000000000000000000000000000A3
:101D40000057726974696E6720746F2066696C65EC
:101D50003A20006F70656E206661696C65642C20A6
:101D600046696C653A20006F70656E206661696C2B
:101D700065642C2046696C653A200046696C6520D4
:101D800073656C65637465640A002053697A653A0B
:101D9000200046696C65206F70656E65643A2000AE
:101DA0006F70656E206661696C65642C2046696C95
:101DB000653A20002066696C653A20004E6F7720F6
:101DC000002220706F73002220706172656E743A79
:101DD0002200535542524F5554494E452043414CE1
:101DE0004C207461726765743A22004B494C4C4533
:101DF000442E2000547279696E6720746F206361ED
:101E00006C6C207375622D67636F64652066696C06
:101E10006573207769746820746F6F206D616E79C7
:101E2000206C6576656C732E00747279696E67201C
:101E3000746F2063616C6C207375622D67636F64CF
:101E4000652066696C6573207769746820746F6FAC
:101E5000206D616E79206C6576656C732E204D4126
:101E600058206C6576656C2069733A00202020202C
:101E70002E202020004E414E004353563A0A0A00BD
:101E80004C43443A0A0A003A0A0A0020666F72205C
:101E9000000A42656420546F706F677261706879E0
:101EA000205265706F7274003F496E737566666983
:101EB0006369656E7420454550524F4D2073746FB1
:101EC0007261676520666F722061206D657368209E
:101ED0006F6620746869732073697A652E0A0044FE
:101EE0006F6E652E0A003F557365203020746F2099
:101EF000003F496E76616C69642073746F7261672C
:101F00006520736C6F742E0A003F454550524F4D4B
:101F10002073746F72616765206E6F7420617661E3
:101F2000696C61626C652E0A002C20592000203BF0
:101F300020582000205A2000204A20004D34323101
:101F4000204920004732392049203939390A0044D4
:101F50006F6E652E0A003F557365203020746F2028
:101F6000003F496E76616C69642073746F726167BB
:101F70006520736C6F742E0A003F454550524F4DDB
:101F80002073746F72616765206E6F742061766173
:101F9000696C61626C652E0A003F503420697320C1
:101FA0006F6E6C7920617661696C61626C65207717
:101FB00068656E20616E204C434420697320707206
:101FC0006573656E742E0A003F5032206973206F6E
:101FD0006E6C7920617661696C61626C65207768EE
:101FE000656E20616E204C434420697320707265D9
:101FF00073656E742E0A00292E0A0A0050726F62F1
:10200000696E67204D65736820506F696E74732028
:10201000436C6F7365737420746F2028004D657373
:102020006820696E76616C6964617465642E205005
:10203000726F62696E67206D6573682E0A004D6568
:102040007368207A65726F65642E0A004465666164
:10205000756C742073746F7261676520736C6F7434
:1020600020302073656C65637465642E0A004174CA
:1020700074656D707420746F2070726F6265206F6C
:10208000666620746865206265642E0A004C6F6184
:1020900064696E6720746573745F706174746572CF
:1020A0006E2076616C7565732E0A0A00496E766142
:1020B0006C696420746573745F7061747465726EAA
:1020C0002076616C75652E20282D3120746F2032AA
:1020D000290A0A004C6F636174696F6E7320696E20
:1020E00076616C6964617465642E0A0A00456E74D9
:1020F000697265204D65736820696E76616C6964EC
:10210000617465642E0A0A0077697468204D353061
:10211000322C204D3530302C204D35303120696E39
:102120002074686174206F726465722E0A0A003F21
:10213000596F75206E65656420746F20656E6162ED
:102140006C6520796F757220454550524F4D206166
:102150006E6420696E697469616C697A652069745E
:102160000A002020506C616E6E657242756666656D
:102170007242797465733A20002046726565204D7D
:10218000656D6F72793A2000436F6D70696C65649C
:102190003A204A756C20313220323031390A002021
:1021A0007C20417574686F723A20286E6F6E652CC2
:1021B0002064656661756C7420636F6E666967295B
:1021C0000A00323031372D30372D30342031323A59
:1021D000303000204C617374205570646174656404
:1021E0003A2000312E312E340A004D61726C696E36
:1021F0000020536F66747761726520526573657451
:102200000A00205761746368646F672052657365C4
:10221000740A002042726F776E206F7574205265C9
:102220007365740A002045787465726E616C205283
:10223000657365740A00506F77657255700A007394
:10224000746172740A006572726F722077726974B9
:10225000696E6720746F2066696C650A00205A3ABF
:102260000020593A0020583A00656E6473746F700C
:1022700073206869743A200053544F50207072697B
:102280006E74696E670A004D6F76652061776179BB
:10229000204F4B2E0A004D6F7665206177617920C3
:1022A0005820592E0A004D6F76652061776179209C
:1022B000582C592E2E2E0053797374656D2073742B
:1022C0006F7020666F722073687574646F776E2EFE
:1022D00000446F6E6520736176696E672066696C75
:1022E000652E0A004D3239004163746976652045D8
:1022F000787472756465723A20004D313130332044
:102300006F6B2E0A005344207265616420657272FF
:102310006F720A00206C653A00206C7A3A00206CDB
:10232000793A006C783A00206C653A00206C7A3A71
:1023300000206C793A006C783A006D6F7665207AEF
:10234000206178697320616E64206520617869730B
:102350002E0A00536420696E6974206661696C21DD
:1023600020536F2063616E277420726573756D65ED
:10237000207072696E742E00536420696E69742037
:102380006661696C212E0A536F2063616E27742089
:10239000726573756D65207072696E742E004D31B3
:1023A000313031206F6B2D2D0054617267657420C0
:1023B00066696C65206F70656E206661696C2E00C1
:1023C0004E6F207072696E74206E65656465642E50
:1023D000004361726420696E6974206661696C00F3
:1023E0004D31313031206661696C20666F72206337
:1023F00061726420696E6974206661696C2E0A00DE
:102400005072696E7420636F6E74696E75652066B4
:10241000726F6D206C61737420627265616B2E0A3D
:10242000004E4F206E65656420746F20636F6E747C
:10243000696E756520746F207072696E742E0A0063
:102440004D31313032207374617475733A312046E6
:10245000696C653A004D31313032207374617475A6
:10246000733A300A00526573656E643A20006F6BF0
:102470000067656E65726963206D6F766520646FB5
:102480006E6520696E2075626C2E6C696E655F7476
:102490006F5F64657374696E6174696F6E2829007B
:1024A000686F72697A6F6E74616C206D6F766520EB
:1024B000646F6E6520696E2075626C2E6C696E6546
:1024C0005F746F5F64657374696E6174696F6E28A1
:1024D0002900766572746963616C206D6F76652082
:1024E000646F6E6520696E2075626C2E6C696E6516
:1024F0005F746F5F64657374696E6174696F6E2871
:10250000290046494E414C5F4D4F564520696E208B
:1025100075626C2E6C696E655F746F5F6465737451
:10252000696E6174696F6E2829006F7574206F661B
:1025300020626F756E647320696E2075626C2E6CFC
:10254000696E655F746F5F64657374696E617469E9
:102550006F6E2829005374617274206F6620756253
:102560006C2E6C696E655F746F5F64657374696E01
:102570006174696F6E2829002C2065653D002C2050
:102580007A653D002C2079653D002075626C2E6CCB
:10259000696E655F746F5F64657374696E61746999
:1025A0006F6E2878653D00627573793A20706175A9
:1025B00073656420666F7220696E7075740A0062BC
:1025C0007573793A2070617573656420666F722047
:1025D000757365720A00627573793A2070726F6361
:1025E000657373696E670A004B494C4C45442E2055
:1025F000004B696C6C20636175736564206279209F
:10260000746F6F206D75636820696E61637469769D
:10261000652074696D652E004B494C4C20636175D3
:1026200073656420627920746F6F206D7563682014
:10263000696E6163746976652074696D65202D200B
:1026400063757272656E7420636F6D6D616E643A4E
:1026500020004265642068656174206661696C2EA3
:102660000A53797374656D2073746F702E0A506C01
:10267000656173652072657374617274206D616346
:1026800068696E652E00457874727564657220689D
:10269000656174206661696C2E0A53797374656D87
:1026A0002073746F702E0A506C65617365207265BB
:1026B0007374617274206D616368696E652E006267
:1026C00065640A002C2073797374656D2073746FD0
:1026D0007070656421204865617465725F49443A91
:1026E000200048656174696E67206661696C656485
:1026F0000048656174696E67206661696C65640095
:1027000048656174696E67206661696C65642E0A4C
:1027100053797374656D2073746F702E0048656112
:1027200074696E67206661696C65640048656174F0
:10273000696E67206661696C6564004865617469EB
:102740006E67206661696C65642E0A5379737465DF
:102750006D2073746F702E0070012C0190012701A1
:10276000B0012201C0011D01F00118011002130186
:1027700030020E016002090190020401C002FF0054
:102780000003FA004003F5008003F000D003EB00E3
:102790002004E6007004E100E004DC004005D700FE
:1027A000C005D2004006CD00D006C8008007C30097
:1027B0003008BE00F008B900C009B400B00AAF008C
:1027C000B00BAA00D00CA500000EA000500F9B007B
:1027D000C01096005012910000148C00C0158700A4
:1027E000B0178200B0197D00D01B7800001E730066
:1027F00040206E0090226900F024640040275F00B2
:1028000090295A00E02B5500102E500020304B002C
:1028100010324600E033410090353C00103737005D
:1028200070383200A0392D00B03A2800A03B2300B8
:10283000603C1E00103D1900903D1400103E0F003A
:10284000703E0A00C03E0500003F0000403FFBFF15
:10285000803FF6FFC03FF1FF4572723A204D494E6E
:1028600054454D5020424544004572723A204D492E
:102870004E54454D50004D494E54454D50207472B4
:1028800069676765726564004572723A204D415808
:1028900054454D5020424544004572723A204D4106
:1028A0005854454D50004D415854454D5020747278
:1028B0006967676572656400556E6966696564205D
:1028C000426564204C6576656C696E67006163746F
:1028D0006976652E0A00696E002053797374656D00
:1028E0002076312E3031200023646566696E6520C4
:1028F0002044454641554C545F4B64200023646599
:1029000066696E65202044454641554C545F4B69CD
:10291000200023646566696E652020444546415564
:102920004C545F4B702000504944204175746F74C3
:10293000756E652066696E697368656421205075DF
:102940007420746865206C617374204B702C204B6C
:102950006920616E64204B6420636F6E7374616ED6
:1029600074732066726F6D2062656C6F7720696E7C
:10297000746F20436F6E66696775726174696F6EFC
:102980002E680A00504944204175746F74756E6555
:10299000206661696C6564212074696D656F75746A
:1029A00000504944204175746F74756E65206661EE
:1029B000696C6564212074696D656F75740A0050D7
:1029C0004944204175746F74756E65206661696C49
:1029D0006564212054656D7065726174757265203F
:1029E000746F6F20686967680050494420417574AE
:1029F0006F74756E65206661696C6564212054652D
:102A00006D706572617475726520746F6F2068698E
:102A100067680A00204B643A2000204B693A200086
:102A2000204B703A20000A20436C61737369632065
:102A3000504944200A002054753A2000204B753A32
:102A40002000206D61783A2000206D696E3A2000E8
:102A500020643A200020626961733A200042656474
:102A6000204C6576656C696E6720004661696C650F
:102A70006420746F20656E61626C6520426564201D
:102A80004C6576656C696E670A0075626C2E7374AE
:102A90006174652E73746F726167655F736C6F74B8
:102AA000203D200055424C5F4D4553485F56414CF8
:102AB0004944203D20003F557365203020746F202D
:102AC000003F496E76616C69642073746F72616750
:102AD0006520736C6F742E0A003F454550524F4D70
:102AE0002073746F72616765206E6F742061766108
:102AF000696C61626C652E0A005041555345205047
:102B000052494E5420444F4E450A00455845204CEA
:102B1000434420494E534552542046494C414D456B
:102B20004E54320A00455845204C434420494E53E8
:102B30004552542046494C414D454E54310A0020DF
:102B400020202020202046696C616D656E74207203
:102B5000756E6F757434210A496E736572742066E0
:102B6000696C616D656E7420616E6420707265734E
:102B70007320627574746F6E20746F20636F6E744F
:102B8000696E75652E0A2057616974696E672066E3
:102B90006F72206368616E67696E672066696C6139
:102BA0006D656E742E002020202020202046696C48
:102BB000616D656E742072756E6F757433210A577E
:102BC00061697420666F722066696C616D656E74F0
:102BD00020756E6C6F61642E002020202020202044
:102BE00046696C616D656E742072756E6F757432B6
:102BF000210A5761697420666F7220737461727460
:102C0000206F662066696C616D656E742063686113
:102C10006E67652E005741495420464F5220524559
:102C20004C4F414420444F4E450A00202020202094
:102C3000202046696C616D656E742072756E6F75CB
:102C40007436210A496E736572742066696C616D11
:102C5000656E7420616E6420707265737320627596
:102C600074746F6E20746F20636F6E74696E756517
:102C70002E0A2057616974696E6720666F7220633F
:102C800068616E67696E672066696C616D656E74F8
:102C90002E002020202020202046696C616D656E6A
:102CA000742072756E6F757435210A546865206ED4
:102CB0006F7A7A6C652068617320636F6F6C206433
:102CC0006F776E2C707265737320627574746F6E9B
:102CD00020746F2072656865617420746865206E69
:102CE0006F7A7A6C652E004558452057414954202B
:102CF000464F522046494C414D454E542052454C7A
:102D00004F41440A0020202046696C616D656E7455
:102D10002072756E6F75743131210A5761697420A4
:102D2000666F72207072696E7420746F20726573A2
:102D3000756D652E004348414E4745204F5054491C
:102D40004F4E533A002020202020202046696C61FD
:102D50006D656E742072756E6F757439210A5761D6
:102D6000697420666F722066696C616D656E74208F
:102D7000657874727564652E004558452052455338
:102D8000554D4520574149542057414954205741FA
:102D900049540A002020202020202046696C616DC3
:102DA000656E742072756E6F757438210A5761698B
:102DB0007420666F722066696C616D656E74206C3C
:102DC0006F61642E002020202020202046696C6145
:102DD0006D656E742072756E6F757437210A496E59
:102DE000736572742066696C616D656E7420616EC6
:102DF0006420707265737320627574746F6E2074D2
:102E00006F20636F6E74696E75652E0A2057616955
:102E100074696E6720666F72206368616E67696EA1
:102E2000672066696C616D656E742E00455845209B
:102E3000524553554D45205052494E540A00496E53
:102E400076616C6964206D617020747970652E0AFA
:102E50000A003F43616E2774206163746976617470
:102E60006520616E64206465616374697661746570
:102E7000206174207468652073616D652074696DCC
:102E8000652E0A0A00496E76616C69642059206CCF
:102E90006F636174696F6E207370656369666965DD
:102EA000642E0A0A00496E76616C69642058206CB1
:102EB0006F636174696F6E207370656369666965BD
:102EC000642E0A0A00426F74682058202620592078
:102ED0006C6F636174696F6E73206D7573742062BB
:102EE00065207370656369666965642E0A0A003F30
:102EF000496E76616C696420677269642073697ACF
:102F00006520284A292073706563696669656420B5
:102F100028322D39292E0A0A003F2850296861736A
:102F2000652076616C756520696E76616C696420D8
:102F300028302D36292E0A0A003F2856296572624C
:102F40006F7365206C6576656C20697320696D70A0
:102F50006C61757369626C652028302D34292E0AE6
:102F60000A003F285229657065746974696F6E2084
:102F7000636F756E7420696E76616C6964202831A8
:102F80002B292E0A0A00736176655F75626C5F619A
:102F900063746976655F73746174655F616E645FA5
:102FA00064697361626C656428292063616C6C6577
:102FB00064206D756C7469706C652074696D6573DF
:102FC00020696E206120726F772E0A00726573741B
:102FD0006F72655F75626C5F6163746976655F735C
:102FE000746174655F616E645F6C656176652829E4
:102FF0002063616C6C656420746F6F206D616E7905
:103000002074696D65732E0A002073616E6974798E
:1030100020636865636B73207061737365642E0A47
:1030200000206D65736865732E0A0A00454550528D
:103030004F4D2063616E20686F6C642000454550E1
:10304000524F4D206672656520666F722055424C66
:103050003A20007A5F76616C75655B5D5B5D20731D
:10306000697A653A200073697A656F662875626CC3
:1030700029203A20200020746F20004D6573686578
:103080007320676F2066726F6D200075626C5F73CE
:10309000746174655F726563757273696F6E5F6387
:1030A000686B203A0075626C5F73746174655F6170
:1030B000745F696E766F636174696F6E203A002089
:1030C0002000592D41786973204D65736820506F39
:1030D000696E74732061743A2000202000582D41DD
:1030E000786973204D65736820506F696E74732022
:1030F00061743A20004D4553485F595F4449535429
:103100002020004D4553485F585F444953542020C8
:1031100000475249445F4D41585F504F494E545308
:103120005F59202000475249445F4D41585F504F3E
:10313000494E54535F5820200055424C5F4D455333
:10314000485F4D41585F59202028333030202D20D2
:10315000283029293D0055424C5F4D4553485F4D6D
:1031600041585F58202028333030202D2028302926
:10317000293D0055424C5F4D4553485F4D494E5FD8
:103180005920202830202B2030293D0055424C5F0B
:103190004D4553485F4D494E5F5820202830202B25
:1031A0002030293D007A70726F62655F7A6F6666C3
:1031B0007365743A200055424C206F626A656374EF
:1031C00020636F756E743A2000204C6F61646564F3
:1031D0002E004D65736820004E6F204D657368208A
:1031E0004C6F616465642E003A2000454550524F93
:1031F0004D2044756D703A0A002066726F6D206331
:10320000757272656E74206D6573682E0A00537551
:10321000627472616374696E67206D65736820699A
:103220006E20736C6F7420003F55736520302074DE
:103230006F20003F496E76616C69642073746F7211
:1032400061676520736C6F742E0A003F55736520AB
:103250003020746F20003F53746F72616765207374
:103260006C6F7420232072657175697265642E0A13
:10327000003F454550524F4D2073746F7261676532
:10328000206E6F7420617661696C61626C652E0AD4
:1032900000290A002062797465733B206372632001
:1032A0000053657474696E67732053746F7265643C
:1032B00020280055424C2053797374656D20726547
:1032C00073657428290A00206C6F61646564206648
:1032D000726F6D2073746F726167652E0A004D65A1
:1032E000736820002E0A0020696E697469616C6938
:1032F0007A65642E0A0A003F43616E277420656E6A
:1033000061626C652000202863616C63756C617478
:10331000656429210A0020213D2000454550524F77
:103320004D20435243206D69736D61746368202D95
:10333000202873746F726564292000290A002062B6
:10334000797465733B2063726320002073746F721D
:1033500065642073657474696E6773207265747236
:103360006965766564202800204D61726C696E3D48
:10337000563037290A0028454550524F4D3D0045EB
:103380004550524F4D2076657273696F6E206D699E
:10339000736D6174636820004578747275646500AC
:1033A000526573756D65006274643A0062693A0033
:1033B00000009643000096430000C8430000A04070
:1033C0000000A040000000403F50726F6265200086
:1033D00020706F736974696F6E206F7574206F66EB
:1033E0002072616E67652E0A0070583A002070598D
:1033F0003A0020705A3A002070453A0070012C01C2
:1034000090012701B0012201C0011D01F001180146
:103410001002130130020E01600209019002040142
:10342000C002FF000003FA004003F5008003F00033
:10343000D003EB002004E6007004E100E004DC00AF
:103440004005D700C005D2004006CD00D006C80018
:103450008007C3003008BE00F008B900C009B400FE
:10346000B00AAF00B00BAA00D00CA500000EA0005F
:10347000500F9B00C01096005012910000148C0059
:10348000C0158700B0178200B0197D00D01B7800EE
:10349000001E730040206E0090226900F02464003A
:1034A00040275F0090295A00E02B5500102E500055
:1034B00020304B0010324600E033410090353C0094
:1034C0001037370070383200A0392D00B03A28008C
:1034D000A03B2300603C1E00103D1900903D1400ED
:1034E000103E0F00703E0A00C03E0500003F000085
:1034F000403FFBFF803FF6FFC03FF1FF24F404D9BB
:10350000201BC40C5C0E9804C4095F02650771019E
:10351000F405F900FB04B30048048700C103690007
:103520005803550003034500BE023A0084023100EF
:1035300053022A002902250004022000E4011C0095
:10354000C8011900AF01170098011400840113008D
:10355000710110006101100051010E0043010D00C6
:1035600036010B002B010B0020010B001501090097
:103570000C01090003010800FB000800F30008002B
:10358000EB000700E4000600DE000600D80006009D
:10359000D2000600CC000500C7000500C2000500EF
:1035A000BD000400B9000400B5000400B10004002F
:1035B000AD000400A9000400A5000300A200030060
:1035C0009F0004009B000300980003009500020088
:1035D00093000300900003008D0002008B000300A5
:1035E00088000200860002008400030081000200BF
:1035F0007F0002007D0002007B00020079000200D3
:1036000077000100760002007400020072000100E1
:10361000710002006F0002006D0001006C000200EA
:103620006A000100690002006700010066000100F5
:1036300065000100640002006200010061000100F9
:10364000600001005F0002005D0001005C000100FD
:103650005B0001005A000100590001005800010000
:103660005700010056000100550001005400010000
:1036700053000000530001005200010051000100FE
:10368000500001004F0001004E0000004E000100FC
:103690004D0001004C0001004B0000004B000100F8
:1036A0004A000100490001004800000048000100F4
:1036B00047000100460000004600010045000000F0
:1036C00045000100440001004300000043000100E8
:1036D00042000000420001004100000041000100E2
:1036E000400001003F0000003F0001003E000000DC
:1036F0003E0001003D0000003D0001003C000000D4
:103700003C0000003C0001003B0000003B000100C9
:103710003A0000003A0001003900000039000100C1
:1037200038000000380000003800010037000000B9
:1037300037000100360000003600000036000100AE
:1037400035000000350000003500010034000000A5
:10375000340000003400010033000000330000009A
:10376000330001003200000032000000320001008E
:103770003100000031000000310001003000000085
:1037800030000000300001002F0000002F0000007A
:103790002F0000002F0001002E0000002E0000006E
:1037A0002E0001002D0000002D0000002D00000063
:1037B0002D0001002C0000002C0000002C00000057
:1037C0002C0001002B0000002B0000002B0000004B
:1037D0002B0001002A0000002A0000002A0000003F
:1037E0002A00010029000000290000002900000033
:1037F0002900000029000100280000002800000026
:103800002800000028000000280001002700000018
:10381000270000002700000027000000270001000B
:103820002600000026000000260000002600000000
:1038300026000100250000002500000025000000F2
:1038400025000000250000002500010024000000E4
:1038500024000000240000002400000024000100D7
:1038600023000000230000002300000023000000CC
:1038700023000000230000002300010022000000BC
:1038800022000000220000002200000022000000B0
:1038900022000100210000002100000021000000A2
:1038A0002100000021000000210000002100010093
:1038B0002000000020000000200000002000000088
:1038C0002000000020000000200000002000010077
:1038D0001F0000001F0000001F0000001F0000006C
:1038E0001F0000001F0000001F0001001E0000005C
:1038F0001E0000001E0000001E00000024F4D43052
:1039000050C38E20C2A24017828B7011127A910D83
:10391000816CD90AA861E108C7586607615143065E
:103920001E4B5D05C145A7041A411104093D9803CA
:10393000713931034036DB0265339102D4305402D1
:10394000802E1D02632CEE01752AC501B028A0014E
:10395000102781018F2564012B244B01E0223401C3
:10396000AC211F018D200D01801FFC00841EED0085
:10397000971DDF00B81CD200E61BC600201BBC0050
:10398000641AB200B219A8000A19A0006A189900B6
:10399000D117910040178B00B516840031167E00B8
:1039A000B31579003A157300C7146F0058146A00F4
:1039B000EE1366008813630025135E00C7125B00D8
:1039C0006C12570015125400C111510070114F00B4
:1039D00021114B00D61049008D10470046104400BD
:1039E00002104200C00F4000800F3E00420F3C001A
:1039F000060F3B00CB0E3800930E37005C0E3500EF
:103A0000270E3400F30D3200C10D3100900D30004F
:103A1000600D2E00320D2D00050D2C00D90C2B0051
:103A2000AE0C2900850C29005C0C2700350C270002
:103A30000E0C2600E80B2400C40B2400A00B23006E
:103A40007D0B23005A0B2100390B2100180B20009D
:103A5000F80A1F00D90A1E00BB0A1E009D0A1D009D
:103A6000800A1D00630A1C00470A1B002C0A1B0069
:103A7000110A1A00F7091A00DD091900C409190012
:103A8000AB091900920917007B0918006309170098
:103A90004C09160036091600200916000A091500FF
:103AA000F5081500E0081400CC081400B80814004C
:103AB000A4081400900813007D0812006B0813007E
:103AC000580812004608120034081100230811009B
:103AD0001208110001081100F0071000E0071000A3
:103AE000D0071000C0071000B0070F00A10710009A
:103AF00091070E0083070F0074070F0065070E0083
:103B000057070E0049070E003B070D002E070E0059
:103B100020070D0013070D0006070D00F9060C0025
:103B2000ED060D00E0060C00D4060C00C8060C00E3
:103B3000BC060C00B0060C00A4060B0099060C0095
:103B40008D060B0082060B0077060B006C060B003F
:103B500061060A0057060B004C060A0042060A00DE
:103B600038060A002E060A0024060A001A060A0071
:103B70001006090007060A00FD050900F405090002
:103B8000EB050900E2050900D9050900D005090087
:103B9000C7050900BE050900B5050800AD05080008
:103BA000A50509009C050800940508008C0508007F
:103BB000840508007C050800740508006C050700F2
:103BC000650508005D050700560508004E0507005D
:103BD00047050700400508003805070031050700C4
:103BE0002A050700230507001C0506001605070027
:103BF0000F0507000805060002050700FB04060084
:103C0000F5040700EE040600E8040600E2040700DD
:103C1000DB040600D5040600CF040600C904060034
:103C2000C3040600BD040600B7040600B104050085
:103C3000AC040600A6040600A00405009B040600D0
:103C400095040500900406008A040500850405001B
:103C5000800406007A040500750405007004050060
:103C60006B04050066040500610405005C040500A2
:103C700057040500520405004D04050048040500E2
:103C8000430405003E0404003A0405003504050021
:103C9000300404002C04050027040400230405005C
:103CA0001E0404001A040400160405001104040094
:103CB0000D040400090405000404040000040400C9
:103CC000FC030400F8030400F4030400F003040000
:103CD000EC030400E8030400E4030400E003040030
:103CE000DC030400D8030400D4030400D003040060
:103CF000CC030400C8030300C503030024F404D963
:103D0000201BC40C5C0E9804C4095F026507710196
:103D1000F405F900FB04B30048048700C1036900FF
:103D20005803550003034500BE023A0084023100E7
:103D300053022A002902250004022000E4011C008D
:103D4000C8011900AF011700980114008401130085
:103D5000710110006101100051010E0043010D00BE
:103D600036010B002B010B0020010B00150109008F
:103D70000C01090003010800FB000800F300080023
:103D8000EB000700E4000600DE000600D800060095
:103D9000D2000600CC000500C7000500C2000500E7
:103DA000BD000400B9000400B5000400B100040027
:103DB000AD000400A9000400A5000300A200030058
:103DC0009F0004009B000300980003009500020080
:103DD00093000300900003008D0002008B0003009D
:103DE00088000200860002008400030081000200B7
:103DF0007F0002007D0002007B00020079000200CB
:103E000077000100760002007400020072000100D9
:103E1000710002006F0002006D0001006C000200E2
:103E20006A000100690002006700010066000100ED
:103E300065000100640002006200010061000100F1
:103E4000600001005F0002005D0001005C000100F5
:103E50005B0001005A0001005900010058000100F8
:103E600057000100560001005500010054000100F8
:103E700053000000530001005200010051000100F6
:103E8000500001004F0001004E0000004E000100F4
:103E90004D0001004C0001004B0000004B000100F0
:103EA0004A000100490001004800000048000100EC
:103EB00047000100460000004600010045000000E8
:103EC00045000100440001004300000043000100E0
:103ED00042000000420001004100000041000100DA
:103EE000400001003F0000003F0001003E000000D4
:103EF0003E0001003D0000003D0001003C000000CC
:103F00003C0000003C0001003B0000003B000100C1
:103F10003A0000003A0001003900000039000100B9
:103F200038000000380000003800010037000000B1
:103F300037000100360000003600000036000100A6
:103F4000350000003500000035000100340000009D
:103F50003400000034000100330000003300000092
:103F60003300010032000000320000003200010086
:103F7000310000003100000031000100300000007D
:103F800030000000300001002F0000002F00000072
:103F90002F0000002F0001002E0000002E00000066
:103FA0002E0001002D0000002D0000002D0000005B
:103FB0002D0001002C0000002C0000002C0000004F
:103FC0002C0001002B0000002B0000002B00000043
:103FD0002B0001002A0000002A0000002A00000037
:103FE0002A0001002900000029000000290000002B
:103FF000290000002900010028000000280000001E
:104000002800000028000000280001002700000010
:104010002700000027000000270000002700010003
:1040200026000000260000002600000026000000F8
:1040300026000100250000002500000025000000EA
:1040400025000000250000002500010024000000DC
:1040500024000000240000002400000024000100CF
:1040600023000000230000002300000023000000C4
:1040700023000000230000002300010022000000B4
:1040800022000000220000002200000022000000A8
:10409000220001002100000021000000210000009A
:1040A000210000002100000021000000210001008B
:1040B0002000000020000000200000002000000080
:1040C000200000002000000020000000200001006F
:1040D0001F0000001F0000001F0000001F00000064
:1040E0001F0000001F0000001F0001001E00000054
:1040F0001E0000001E0000001E00000024F4D4304A
:1041000050C38E20C2A24017828B7011127A910D7B
:10411000816CD90AA861E108C75866076151430656
:104120001E4B5D05C145A7041A411104093D9803C2
:10413000713931034036DB0265339102D4305402C9
:10414000802E1D02632CEE01752AC501B028A00146
:10415000102781018F2564012B244B01E0223401BB
:10416000AC211F018D200D01801FFC00841EED007D
:10417000971DDF00B81CD200E61BC600201BBC0048
:10418000641AB200B219A8000A19A0006A189900AE
:10419000D117910040178B00B516840031167E00B0
:1041A000B31579003A157300C7146F0058146A00EC
:1041B000EE1366008813630025135E00C7125B00D0
:1041C0006C12570015125400C111510070114F00AC
:1041D00021114B00D61049008D10470046104400B5
:1041E00002104200C00F4000800F3E00420F3C0012
:1041F000060F3B00CB0E3800930E37005C0E3500E7
:10420000270E3400F30D3200C10D3100900D300047
:10421000600D2E00320D2D00050D2C00D90C2B0049
:10422000AE0C2900850C29005C0C2700350C2700FA
:104230000E0C2600E80B2400C40B2400A00B230066
:104240007D0B23005A0B2100390B2100180B200095
:10425000F80A1F00D90A1E00BB0A1E009D0A1D0095
:10426000800A1D00630A1C00470A1B002C0A1B0061
:10427000110A1A00F7091A00DD091900C40919000A
:10428000AB091900920917007B0918006309170090
:104290004C09160036091600200916000A091500F7
:1042A000F5081500E0081400CC081400B808140044
:1042B000A4081400900813007D0812006B08130076
:1042C0005808120046081200340811002308110093
:1042D0001208110001081100F0071000E00710009B
:1042E000D0071000C0071000B0070F00A107100092
:1042F00091070E0083070F0074070F0065070E007B
:1043000057070E0049070E003B070D002E070E0051
:1043100020070D0013070D0006070D00F9060C001D
:10432000ED060D00E0060C00D4060C00C8060C00DB
:10433000BC060C00B0060C00A4060B0099060C008D
:104340008D060B0082060B0077060B006C060B0037
:1043500061060A0057060B004C060A0042060A00D6
:1043600038060A002E060A0024060A001A060A0069
:104370001006090007060A00FD050900F4050900FA
:10438000EB050900E2050900D9050900D00509007F
:10439000C7050900BE050900B5050800AD05080000
:1043A000A50509009C050800940508008C05080077
:1043B000840508007C050800740508006C050700EA
:1043C000650508005D050700560508004E05070055
:1043D00047050700400508003805070031050700BC
:1043E0002A050700230507001C050600160507001F
:1043F0000F0507000805060002050700FB0406007C
:10440000F5040700EE040600E8040600E2040700D5
:10441000DB040600D5040600CF040600C90406002C
:10442000C3040600BD040600B7040600B10405007D
:10443000AC040600A6040600A00405009B040600C8
:1044400095040500900406008A0405008504050013
:10445000800406007A040500750405007004050058
:104460006B04050066040500610405005C0405009A
:1044700057040500520405004D04050048040500DA
:10448000430405003E0404003A0405003504050019
:10449000300404002C040500270404002304050054
:1044A0001E0404001A04040016040500110404008C
:1044B0000D040400090405000404040000040400C1
:1044C000FC030400F8030400F4030400F0030400F8
:1044D000EC030400E8030400E4030400E003040028
:1044E000DC030400D8030400D4030400D003040058
:1044F000CC030400C8030300C5030300656E717597
:10450000657565696E672022004572726F7220774B
:10451000726974696E6720746F20454550524F4D23
:10452000210A0043616E6E6F74206F70656E207398
:10453000756264697220004D3234004D323320259B
:1045400073006175746F25692E67005344206361A1
:104550007264206F6B0A006F70656E526F6F74200B
:104560006661696C65640A00766F6C756D652E69AD
:104570006E6974206661696C65640A004572726FC9
:10458000723A00534420696E6974206661696C0A4E
:10459000006563686F3A005374616E6461726420F1
:1045A000446576696174696F6E3A20004D65616E8D
:1045B000204D657368204865696768743A20002358
:1045C000206F662073616D706C65733A2000200A5D
:1045D000004420636F6E7374616E743A2000726FD2
:1045E000746174696F6E206D61747269783A005DF0
:1045F0000A0062656420706C616E65206E6F726D7A
:10460000616C203D205B00544845524D414C205286
:10461000554E4157415900546865726D616C205286
:10462000756E617761790000002100240027002A5F
:10463000002D003000330001010000040107010AD1
:10464000014D353030000000704200007042000023
:104650002042000000007601740111241FBECFEF3C
:10466000D1E2DEBFCDBF00E00CBF13E0A0E0B2E0BE
:10467000EAE0FBE302E00BBF02C007900D92A83A0C
:10468000B107D9F726E1A8EAB3E001C01D92A2362E
:10469000B207E1F713E2CCE2D3E200E006C02197D3
:1046A0000109802FFE010F94BE1CCB32D10780E0A0
:1046B0000807A9F70F94D1050D94741D0C94000000
:1046C0002F923F924F925F926F927F928F929F9222
:1046D000AF92BF92CF92DF92EF92FF920F931F9310
:1046E000CF93DF93CDB7DEB7C755D1090FB6F89496
:1046F000DEBF0FBECDBFE091C60F20E4E29FF00108
:104700001124EA53F24F8081813091F4BF016F5F31
:104710007F4F80E090E0DB014D91BD019C01255E63
:10472000364FD9014C93019684309105A1F708C00A
:1047300010921B0910921C0910921D0910921E095B
:1047400010828581181614F0809300028F010A5F91
:104750001F4F80911F0980FF2EC0E1E9F5E484918D
:104760007F01BFEFEB1AFB0A882321F00E9452EA77
:10477000F701F5CF809100020E9452EA8AE00E9480
:1047800052EAE1E9F5E484917F012FEFE21AF20A9F
:10479000811102C0780104C00E9452EAF701F3CFF0
:1047A000D7018D917D01882319F00E9452EAF8CF3C
:1047B0008AE00E9452EA81E090E09093C90F8093D2
:1047C000C80FC8010E94C5828091A50C8D3409F4E0
:1047D0001CC7843511F40C947D39873421F0E1E94C
:1047E000F5E40C9482392090A30C3090A40CBDE128
:1047F0002B16310409F467C5ECF4F4E02F163104EC
:104800004CF422E0221631040CF05FC037FE51C098
:104810000C949A3934E02316310409F416C54CE19E
:104820002416310411F00C949A3980E00E94AC7384
:104830000C949A395AE22516310409F431C62CF544
:104840009EE12916310409F442C5A2E22A16310478
:1048500011F00C949A396091680D70E080E999E04C
:104860000E9454516091690D70E08CE899E00E94BB
:10487000545160916A0D70E088E899E00E945451AB
:104880008AE00E9452EA0C949A39BBE52B16310457
:1048900009F4A2C5ECE52E16310409F4A2C5FAE527
:1048A0002F16310411F00C949A391092BE030C9417
:1048B0009A3980910302882311F40C949A390E944A
:1048C00034730E9452B60C949A3980910302882363
:1048D00011F40C949A390E94347382E50E9417EA0D
:1048E000882309F42AC10E94B1E94B015C0120E050
:1048F00030E0A9010F94E411882309F44AC1209102
:10490000860D3091870D4091880D5091890D2CA313
:104910003DA34EA35FA380918A0D90918B0DA09132
:104920008C0DB0918D0D88A799A7AAA7BBA7209140
:10493000710C3091720C4091730C5091740C28AB37
:1049400039AB4AAB5BAB8091750C9091760CA09122
:10495000770CB091780C8CA79DA7AEA7BFA76CA1D0
:104960007DA18EA19FA10F94E41181110DC02CA5F2
:104970003DA54EA55FA568A579A58AA59BA50F9421
:10498000E411882309F405C111E092E029163104ED
:1049900009F010E020E030E0A901C501B4010F9456
:1049A000E411881F8827881F181749F020E030E09D
:1049B00040E85FEB2CAF3DAF4EAF5FAF08C080E08B
:1049C00090E0A0E8BFE38CAF9DAFAEAFBFAF2CA12E
:1049D0003DA14EA15FA168A979A98AA99BA90F94BD
:1049E000871868AF79AF8AAF9BAF28A539A54AA5CC
:1049F0005BA56CA57DA58EA59FA50F9487186B015F
:104A00007C0128AD39AD4AAD5BADCA01B9010F9447
:104A100049122B013C01A7019601C701B6010F9471
:104A200049129B01AC01C301B2010F9488180F9485
:104A3000881B6CAB7DAB8EAB9FAB20E030E040E0E1
:104A40005FE30F9449122B013C01A5019401C501BC
:104A5000B4010F9449124B015C01A3019201C301FF
:104A6000B2010F9449129B01AC01C501B4010F942E
:104A700087180F94881B2CAD3DAD4EAD5FAD0F94E4
:104A800049124B015C01C701B60190582CA93DA900
:104A90004EA95FA90F946419A50194010F944912BE
:104AA0006B017C0128A939A94AA95BA96CA17DA148
:104AB0008EA19FA10F94881820E030E040E05FE3D2
:104AC0000F9449129B01AC01C701B6010F948818DD
:104AD0002CA13DA14EA15FA10F9487186B017C0111
:104AE0002CA53DA54EA55FA568A579A58AA59BA582
:104AF0000F94881820E030E040E05FE30F94491203
:104B00002B013C012CA93DA94EA95FA968AD79AD47
:104B10008AAD9BAD0F946419A50194010F944912BD
:104B20009B01AC01C301B2010F94881828A539A5D7
:104B30004AA55BA50F94871814C089E40E9417EA60
:104B4000882329F00E94B1E96B017C0103C0C12CCC
:104B5000D12C76018AE40E9417EA8823E9F00E94AA
:104B6000B1E968AB79AB8AAB9BAB20E030E0A9013F
:104B7000C701B6010F94E41181111BC020E030E0A1
:104B8000A90168A979A98AA99BA90F94E4118111A7
:104B900010C0ECE7F5E445C320E030E0A901C7010F
:104BA000B6010F94E4118823A1F318AA19AA1AAA2E
:104BB0001BAAA701960150582CA33DA34EA35FA3A7
:104BC00088A999A9AAA9BBA9B05888A799A7AAA7F3
:104BD000BBA7CA01B9010F9449124B015C0128A57A
:104BE00039A54AA55BA5CA01B9010F9449129B01D9
:104BF000AC01C501B4010F9488180F94881B2C9642
:104C00006CAF7DAF8EAF9FAF2C972091860D30910A
:104C1000870D4091880D5091890D2CA73DA74EA777
:104C20005FA7A70196016CA57DA58EA59FA50F94F2
:104C300088186CAF7DAF8EAF9FAF80918A0D909139
:104C40008B0DA0918C0DB0918D0D8CAB9DABAEAB4F
:104C5000BFAB28A939A94AA95BA9BC01CD010F9412
:104C6000881860966CAF7DAF8EAF9FAF6097209134
:104C7000710C3091720C4091730C5091740C24960D
:104C80002CAF3DAF4EAF5FAF24972CAD3DAD4EADD9
:104C90005FAD24966CAD7DAD8EAD9FAD24970F9426
:104CA00087186B017C018091750C9091760CA09116
:104CB000770CB091780C28968CAF9DAFAEAFBFAF9C
:104CC000289760962CAD3DAD4EAD5FAD6097BC01B1
:104CD000CD010F9487184B015C0120918E0D30910E
:104CE0008F0D4091900D5091910D64962CAF3DAF7A
:104CF0004EAF5FAF64976091790C70917A0C8091A0
:104D00007B0C90917C0C0F94871868AF79AF8AAFB9
:104D10009BAFA70196016CA17DA18EA19FA10F94CD
:104D200049122B013C01A501940168A579A58AA52A
:104D30009BA50F9449129B01AC01C301B2010F94D2
:104D400088182B013C01A50194016CA17DA18EA1C5
:104D50009FA10F9449124B015C01A701960168A520
:104D600079A58AA59BA50F9449129B01AC01C501A9
:104D7000B4010F948718A30192010F94FB186B01E3
:104D80007C0120E030E0A9010F94E41187FF0AC004
:104D90002BED3FE049EC50E4C701B6010F948818B1
:104DA0006B017C0132E02316310451F42BED3FE01E
:104DB00049EC50E4C701B6010F9487186B017C01E0
:104DC00020E030E0A901C701B6010F94E411811180
:104DD00024C024962CAD3DAD4EAD5FAD24976CA59F
:104DE0007DA58EA59FA50F94E411811116C028966C
:104DF0002CAD3DAD4EAD5FAD28976CA97DA98EA9B8
:104E00009FA90F94E411811108C07BEDC72E7FE0AC
:104E1000D72E79ECE72E70E4F72EA70196012C9699
:104E20006CAD7DAD8EAD9FAD2C970F9449129B015B
:104E3000AC010F9449124B015C0128AD39AD4AAD6C
:104E40005BADCA01B9010F9449129B01AC01C501C8
:104E5000B4010F9488180F94881B4B015C012FE656
:104E600032E143E85AE30F94E41187FDD3C1C50151
:104E7000B4010F94FD190F94D1197DAB6CAB672B66
:104E800021F481E090E09DAB8CAB4090920D50906E
:104E9000930D6090940D7090950DACA9BDA9BD01C6
:104EA00080E090E00F94E8114B015C019B01AC01A4
:104EB000C701B6010F9464196CA77DA78EA79FA7A1
:104EC000A501940168AD79AD8AAD9BAD0F946419CD
:104ED0002C966CAF7DAF8EAF9FAF2C97A301920144
:104EE00060917D0C70917E0C80917F0C9091800C74
:104EF0000F948718A50194010F94641968966CAFFC
:104F00007DAF8EAF9FAF68972CA53DA54EA55FA541
:104F1000CA01B9010F94491220E030E040E05FE39C
:104F20000F9449129B01AC0160E070E080E89FE3C0
:104F30000F94871868AF79AF8AAF9BAF64962CAD9A
:104F40003DAD4EAD5FAD649729873A874B875C874F
:104F50004D865E866F86788A609125027091260262
:104F6000072E000C880B990B0F94EA112091330245
:104F70003091340240913502509136020F9449121B
:104F80002AE037ED43E25CE30F94491224966CAFBC
:104F90007DAF8EAF9FAF24970F94DE039B01AC01D2
:104FA00028533F4F4F4F5F4F28962CAF3DAF4EAF2A
:104FB0005FAF28974CA05DA06EA07FA02224239411
:104FC000312C69E1D62E4CA95DA94215530509F48F
:104FD0000DC10E943BC40F94DE03DC01CB01289677
:104FE0002CAD3DAD4EAD5FAD2897821B930BA40B4E
:104FF000B50BB7FD11C00F94DE039B01AC01285324
:105000003F4F4F4F5F4F28962CAF3DAF4EAF5FAF36
:10501000289780E00E947EB3DA94DD20E9F128A58C
:1050200039A54AA55BA568AD79AD8AAD9BAD0F9456
:1050300049124B015C019201A3016CA57DA58EA5CF
:105040009FA50F944912A50194010F9488187B0124
:105050008C019201A30168AD79AD8AAD9BAD0F942F
:1050600049124B015C0128A539A54AA55BA56CA591
:105070007DA58EA59FA50F9449129B01AC01C5018A
:10508000B4010F9487182B013C01C701D80188A7F0
:1050900099A7AAA7BBA74DC0B10180E090E00F94EB
:1050A000E8112CA53DA54EA55FA50F9449124B0113
:1050B0005C010F9461196B017C01C501B4010F946F
:1050C0007E1B4B015C01A70196016CA17DA18EA105
:1050D0009FA10F9449122B013C0128A939A94AA983
:1050E0005BA9C501B4010F944912A30192010F9469
:1050F00088182B013C01A50194016CA17DA18EA112
:105100009FA10F9449124B015C0128A939A94AA912
:105110005BA9C701B6010F9449129B01AC01C501FF
:10512000B4010F94871868A779A78AA79BA749E1BC
:10513000D42E9201A3016CAD7DAD8EAD9FAD0F94C9
:10514000881869837A838B839C8328A539A54AA50F
:105150005BA560966CAD7DAD8EAD9FAD60970F94F5
:1051600088186D837E838F8398872C962CAD3DADF8
:105170004EAD5FAD2C9769857A858B859C850F94A4
:10518000881869877A878B879C8768962CAD3DAD98
:105190004EAD5FAD68976D857E858F8598890F943C
:1051A00088186D877E878F87988B809175028823FA
:1051B00021F0CE0101960E942390C090B810249651
:1051C000ECACFDAC0EAD1FAD24979E01235F3F4FAD
:1051D000AE01475F5F4FBE016B5F7F4FCE0101960F
:1051E0000E9440553FEF231A330AEDCEC090B8100D
:1051F0002496ECACFDAC0EAD1FAD24972DE73CE042
:1052000049E75CE065E77CE081E79CE00E9440556F
:105210000E9476640E9447EA0C949A390E9452EAEE
:10522000F80184918F010F5F1F4F8111F7CFEBEAD7
:10523000F4E084918F010F5F1F4F882311F40C94C9
:105240009A390E9452EAF801F4CF80E50E9417EAE9
:10525000882329F00E9471E96B017C0103C0C12CF5
:10526000D12C760183E50E9417EA882361F00E9421
:10527000B1E920E030E04AE754E40F9449120F947A
:10528000D1196B017C010E9444C70E9447EA8091BA
:10529000D00F9091D10FA091D20FB091D30FC80E23
:1052A000D91EEA1EFB1E0F94DE03DC01CB018C1914
:1052B0009D09AE09BF09B7FD02C00C949A3980E080
:1052C0000E947EB3F0CF0E94B39C0C949A39C09098
:1052D000860DD090870DE090880DF090890D88E5BF
:1052E0000E9417EA811109C020E030E048EC51E447
:1052F000C701B6010F94881802C00E94B1E968A3E3
:1053000079A38AA39BA3C0908A0DD0908B0DE090C7
:105310008C0DF0908D0D89E50E9417EA811108C06F
:1053200020E030E0A901C701B6010F94881802C03F
:105330000E94B1E96B017C0169837A838B839C8332
:105340002091650C3091660C4091670C5091680C6F
:1053500068A179A18AA19BA10F9487184B015C01D8
:1053600024EF3DEF47EC51E40F94AE1A87FF02C0E3
:105370000C949A3921E230E046E953E4C501B401C6
:105380000F94E411181614F40C949A392091690CB6
:1053900030916A0C40916B0C50916C0CC701B601B6
:1053A0000F9487186B017C012FE632E143E85AEB3A
:1053B0000F94AE1A87FF02C00C949A3921E230E0B4
:1053C00046E953E4C701B6010F94E411181614F42A
:1053D0000C949A390C94A13981E08093BE030C940B
:1053E0009A3985E40E9417EAB82E811102C00E9402
:1053F00044C79CE7892E92E0992E26E8C22E2DE024
:10540000D22E38EAE32E33E0F32E00E010E0A12C98
:10541000D4018D914D010E9417EA882339F1F601DC
:1054200040805180628073800E94B1E9D6016D9303
:105430007D938D939C9313970330C1F0A301920148
:105440000F9487189B01AC01F70160817181828103
:1054500093810F948818D7016D937D938D939C93BE
:105460001397C8010E949368AA24A3940F5F1F4F4B
:10547000B4E0CB0ED11CE4E0EE0EF11C04301105BB
:1054800039F6AA2019F00E9467E906C0BB2021F076
:1054900082E99DE00E948D950E946B6F0C949A3971
:1054A00080910302882311F40C949A3989E40E94B4
:1054B00017EAF82E882321F00E9481E9062F01C007
:1054C00000E08AE40E9417EAE82E882321F00E9477
:1054D00081E9162F01C010E0FF2011F00E3020F4FA
:1054E000EE2081F01E3070F0E3EDF4E084918F0146
:1054F0000F5F1F4F882311F40C949A390E9452EACF
:10550000F801F4CF0E946C64FF20E1F024E0029FD8
:10551000F0011124ED59F94E2591359145915491A1
:105520006091650C7091660C8091670C9091680C8D
:105530000F9488186093710C7093720C8093730CA5
:105540009093740CEE20E1F034E0139FF0011124ED
:10555000E650F94E25913591459154916091690C31
:1055600070916A0C80916B0C90916C0C0F94881860
:105570006093750C7093760C8093770C9093780CF5
:1055800080E50E94E8E98823E1F00E94A2E98823EF
:10559000C1F0FF20B1F020E030E048EC51E4609130
:1055A000710C7091720C8091730C9091740C0F942B
:1055B00087186093710C7093720C8093730C9093A6
:1055C000740C86E40E9417EA8823D9F00E94B1E99E
:1055D0006B017C0120E030E0A9010F94AE1A18168F
:1055E00084F420E030E040E752E4C701B6010F94B4
:1055F0006419609333027093340280933502909360
:1056000036020E9452B60C949A398091A30C909164
:10561000A40C8737910509F4FEC10CF0D0C08D347D
:10562000910509F483C40CF056C08931910509F441
:10563000E8C21CF58431910509F4F3C17CF4813191
:10564000910509F475C22CF4029708F4EDC10C948D
:105650009A39429709F449C60C949A3986319105D2
:1056600009F4AEC20CF4A8C28731910509F4AEC2A8
:10567000489709F4BBC20C949A398F31910509F40B
:105680005EC394F48B31910509F4CFC20CF4BFC210
:105690008C31910509F406C34E9711F00C949A3998
:1056A0000E9463740C949A398A32910509F4FAC302
:1056B0002CF4809709F400C30C949A398B3491052B
:1056C00009F430C48C34910511F00C949A390E947D
:1056D000C8950C949A398B36910509F4EBC50CF0FA
:1056E00049C08535910509F436C634F582359105F2
:1056F00009F4F2C5BCF48135910511F00C949A3986
:105700000E94D2C00E9444C70E94F1B51092BE0D03
:105710001092BD0D68EE73E080E090E00E945FE4BF
:105720000C949A398335910509F4DAC584359105CD
:1057300009F4DBC50C949A398836910509F4FAC34B
:105740007CF48C35910511F00C949A39FCE7CF2E3E
:10575000F2E0DF2EAEECEA2EACE0FA2E10E014C63A
:105760008936910509F414C58A36910509F483C573
:105770000C949A398037910509F4B7C484F48D36B6
:10578000910509F449C50CF4ACC48E36910509F4B1
:10579000F0C38F36910509F4FFC30C949A39823710
:1057A000910509F470C60CF4B0C48337910509F46F
:1057B00035C18637910509F401C70C949A398039AF
:1057C00041E0940711F40C944A370CF071C08D3C01
:1057D000910511F40C94793454F58E3B910509F43C
:1057E00036C584F48937910509F488C70CF480C75D
:1057F0008C38910509F4B6C48B39910509F4E5C4D8
:105800000C949A39893C910509F4CFC734F4883C4B
:10581000910509F478C70C949A398B3C910509F4E9
:10582000E3C78C3C910509F4FAC70C949A39823E7F
:10583000910511F40C94D535F4F4833D910509F4E8
:10584000E6C06CF48E3C910511F00C949A395CE73B
:10585000E52E52E0F52E00E010E00C94E9348C3D8A
:10586000910511F40C94AF358D3D910511F40C9414
:10587000BC350C949A398D32A1E09A0711F40C943E
:10588000A9363CF48831914011F40C94FE350C9407
:105890009A398F32F1E09F0711F40C944737833621
:1058A000914011F00C949A39ECE7F5E40C942D3901
:1058B000873F31E0930711F40C948A380CF055C0FF
:1058C000853A51E0950711F40C945537BCF48239B0
:1058D000B1E09B0711F40C94513714F40C944D373C
:1058E0008A39F1E09F0709F404C4843A914011F029
:1058F0000C949A390E94DECA0C949A39843F31E0A4
:10590000930711F40C9484380CF58C3A914011F003
:105910000C949A3927EB33E03DA32CA395E6892E0E
:105920009CE0992E26E8A22E2DE0B22E3FE4C32E55
:1059300036E1D32E49E6242E42E0342E56EDE52EF4
:1059400058E0F52E00E010E00C94F834853FA1E01B
:105950009A0711F40C948738863F914011F00C940B
:105960009A390E9499840C949A39873EE3E09E0705
:1059700011F40C94403934F5823523E0920711F488
:105980000C9498384CF48835924011F00C949A3964
:105990000E944DC70C949A39833553E0950799F1CD
:1059A000803A934011F00C949A398091A10C909117
:1059B000A20C21E02093B01340E060E00E948B969F
:1059C0000C949A398E34B4E09B0711F40C9450393E
:1059D0004CF48D34944011F00C949A390E94FBAF32
:1059E0000C949A398F3424E0920711F40C945339B3
:1059F000803B944011F00C949A390091A10C1091C5
:105A0000A20C0C945A39E1E9F5E40C94DB38E1E995
:105A1000F5E40C941835EEE6F7E00AC6E0E9F6E0A6
:105A200042C5E1E0F5E088C00091A10C1091A20C04
:105A300080E50E9417EA882361F00E9471E96B01FA
:105A40007C01BB24B394672B682B692B31F4B12CF8
:105A500004C0B12CC12CD12C760183E50E9417EA39
:105A6000882399F00E94B1E920E030E04AE754E44D
:105A70000F9449120F94D1196B017C01B1100CC025
:105A8000672B682B692B41F435C0B11005C0011597
:105A9000110511F00C94F83983E090E09093C90F50
:105AA0008093C80F81E08093CD030E9444C70E9479
:105AB00047EAC114D104E104F10471F18091D00FDF
:105AC0009091D10FA091D20FB091D30FC80ED91ED3
:105AD000EA1EFB1E0F94DE03DC01CB018C199D092D
