:100000000C94B8130C94E9130C94E9130C94E913B1
:100010000C94E9130C94E9130C94E9130C94E91370
:100020000C94E9130C9441830C9437830C94D38281
:100030000C94E9130C94E9130C94E9130C94E91350
:100040000C94E9130C948BB20C94E9130C94E913FF
:100050000C94E9130C94E9130C94CDA90C940AA107
:100060000C94E9130C94013E0C94E9130C94E913DD
:100070000C94E9130C94E9130C94E9130C94E91310
:100080000C94E9130C94E9130C94E9130C94E91300
:100090000C94F33D0C94E9130C94E9130C94E913BC
:1000A0000C94E9130C94E9130C94E9130C94E913E0
:1000B0000C94E9130C94E9130C94E9130C94E913D0
:1000C0000C94E9130C94E9130C94E9130C94463E38
:1000D0000C94E9130C94E9130C94E53D0C94E9138A
:1000E0000C94E91327413C4591473B4AD249F349D7
:1000F000BE49BE493B4A3B4A3B4A3B4A3B4A3B4AD4
:100100003B4A3B4A144A1D4A264A344A384A34413B
:100110003D414141474151415B4165413B4A794144
:1001200083418C419541A841AE41D941F1413B4ABF
:100130003B4A3B4A0E4214422F423B4A46423B4A0C
:100140003B4A3B4A3B4AE64341443B4A3B4A3B4AE3
:100150003B4A3B4A9C44A544AE44B744C044C944CE
:10016000DB44D2443B4A3B4A3B4A3B4A3B4A3B4A3C
:10017000E4446F41EF44FD443B4A0B451C452D458B
:100180003B4A3B4A3B4A3B4A3B4A3B4A3B4A754215
:1001900079427D4257437E436D4271420C9F0F9FCF
:1001A000FE9E029F089F469F139F179F1D9F219FA2
:1001B000259F2B9F2F9F339F469F399F3D9F419F98
:1001C00026A02BA030A03AA044A0BDA04EA056A0CF
:1001D0005EA068A072A07CA08BA095A0BDA09FA0EF
:1001E000A9A0B3A0084AD73B3BCE016E84BCBFFD9B
:1001F000C12F3D6C74319ABD56833DDA3D00C77FF7
:1002000011BED9E4BB4C3E916BAAAABE000000808F
:100210003F05A84CCDB2D44EB93836A9020C50B91E
:10022000918688083CA6AAAA2ABE000000803F004A
:10023000434F4D4D554E49434154494F4E00445252
:100240005952554E004552524F525300494E464F57
:10025000004543484F0047322F47332062616420F6
:10026000706172616D65746572730A004D657368C3
:1002700020706F696E742063616E6E6F74206265AA
:10028000207265736F6C7665640A00456E64206643
:10029000696C65206C6973740A00426567696E2039
:1002A00066696C65206C6973740A0050726F7465BE
:1002B000637465642050696E0A0051024C02450265
:1002C0003E0230026F66660044454255473A004B95
:1002D000494C4C45442E20004D3131332053006FA2
:1002E0006B004469666665723A200046726F6D5312
:1002F00074703A00537465707065723A00556E4CB4
:100300006576656C3A004C6576656C65643A0055B7
:100310006E4C6576656C3A004C6576656C65643A42
:10032000005261773A20202020000A4C6F676963F1
:10033000616C3A002F2F20007A5F6D696E3A2000C1
:10034000795F6D696E3A2000785F6D696E3A2000C2
:100350005265706F7274696E6720656E6473746F36
:1003600070207374617475730A0053657474696ED8
:10037000672054726176656C20416363656C6572B9
:100380006174696F6E3A200053657474696E6720FA
:100390005265747261637420416363656C65726158
:1003A00074696F6E3A200053657474696E672050EB
:1003B00072696E7420416363656C65726174696F04
:1003C0006E3A200053657474696E67205072696ECE
:1003D0007420616E642054726176656C20416363A1
:1003E000656C65726174696F6E3A2000205A002056
:1003F0005900580020204D61783A2000205A0020F2
:100400005900580020204D696E3A20004F6E2000A0
:100410004F666600536F667420656E6473746F7008
:10042000733A200000013D3E3C36FF40410218FF78
:1004300043454206FFFFFF0305FFFFFF3A3B39FF3D
:10044000FF034404FF37FFFFFFFFFFFF20643A0074
:1004500020693A0020703A0023646566696E652061
:100460002044454641554C545F4B6420002364654D
:1004700066696E65202044454641554C545F4B6982
:10048000200023646566696E652020444546415519
:100490004C545F4B702000504944204175746F7478
:1004A000756E652066696E69736865642120507594
:1004B0007420746865206C617374204B702C204B21
:1004C0006920616E64204B6420636F6E7374616E8B
:1004D00074732066726F6D2062656C6F7720696E31
:1004E000746F20436F6E66696775726174696F6EB1
:1004F0002E680A00504944204175746F74756E650A
:10050000206661696C6564212074696D656F75741E
:1005100000504944204175746F74756E65206661A2
:10052000696C6564212074696D656F75740A00508B
:100530004944204175746F74756E65206661696CFD
:100540006564212054656D706572617475726520F3
:10055000746F6F2068696768005049442041757462
:100560006F74756E65206661696C656421205465E1
:100570006D706572617475726520746F6F20686943
:1005800067680A00204B643A2000204B693A20003B
:10059000204B703A20000A20436C6173736963201A
:1005A000504944200A002054753A2000204B753AE7
:1005B0002000206D61783A2000206D696E3A20009D
:1005C00020643A200020626961733A200042656429
:1005D000204C6576656C696E6720004661696C65C4
:1005E0006420746F20656E61626C652042656420D2
:1005F0004C6576656C696E670A0061626C5F656E5A
:1006000061626C65640061626C5F64697361626CF5
:1006100065003A20007A5F6D696E3A20202D3230F5
:10062000207A5F6D61783A20203230005A204F6680
:100630006673657420005041555345205052494E11
:100640005420444F4E450A00455845204C43442011
:10065000494E534552542046494C414D454E543223
:100660000A00455845204C434420494E53455254B6
:100670002046494C414D454E54310A00202020204F
:1006800020202046696C616D656E742072756E6FF6
:10069000757434210A496E736572742066696C61E1
:1006A0006D656E7420616E64207072657373206274
:1006B0007574746F6E20746F20636F6E74696E75DD
:1006C000652E0A2057616974696E6720666F722013
:1006D0006368616E67696E672066696C616D656EDF
:1006E000742E002020202020202046696C616D653A
:1006F0006E742072756E6F757433210A5761697458
:1007000020666F722066696C616D656E7420756E0F
:100710006C6F61642E002020202020202046696C10
:10072000616D656E742072756E6F757432210A5733
:1007300061697420666F72207374617274206F66D1
:100740002066696C616D656E74206368616E6765B3
:100750002E005741495420464F522052454C4F419C
:100760004420444F4E450A002020202020202046CF
:10077000696C616D656E742072756E6F757436216B
:100780000A496E736572742066696C616D656E747A
:1007900020616E6420707265737320627574746F6B
:1007A0006E20746F20636F6E74696E75652E0A20FB
:1007B00057616974696E6720666F72206368616E45
:1007C00067696E672066696C616D656E742E0020C6
:1007D00020202020202046696C616D656E74207297
:1007E000756E6F757435210A546865206E6F7A7A5C
:1007F0006C652068617320636F6F6C20646F776E27
:100800002C707265737320627574746F6E20746FD0
:100810002072656865617420746865206E6F7A7AED
:100820006C652E00455845205741495420464F528B
:100830002046494C414D454E542052454C4F414471
:100840000A0020202046696C616D656E7420727507
:100850006E6F75743131210A5761697420666F7249
:10086000207072696E7420746F20726573756D6587
:100870002E004348414E4745204F5054494F4E5358
:100880003A002020202020202046696C616D656E92
:10089000742072756E6F757439210A5761697420FE
:1008A000666F722066696C616D656E742065787420
:1008B000727564652E0045584520524553554D4587
:1008C0002057414954205741495420574149540A1F
:1008D000002020202020202046696C616D656E7408
:1008E0002072756E6F757438210A576169742066BD
:1008F0006F722066696C616D656E74206C6F6164E7
:100900002E002020202020202046696C616D656E1D
:10091000742072756E6F757437210A496E73657233
:10092000742066696C616D656E7420616E64207000
:100930007265737320627574746F6E20746F2063B8
:100940006F6E74696E75652E0A2057616974696EE1
:100950006720666F72206368616E67696E672066E4
:10096000696C616D656E742E004558452052455383
:10097000554D45205052494E540A004E6F20636138
:100980007365206C696768740A00556E6B6E6F77CB
:100990006E20636F6D6D616E643A202200207A3A9A
:1009A0000020793A00783A00656E71756575656961
:1009B0006E672022004E6F204C696E65204E756D6B
:1009C000626572207769746820636865636B73750C
:1009D0006D2C204C617374204C696E653A20004B7D
:1009E000494C4C45442E20005072696E746572204B
:1009F00073746F707065642064756520746F206512
:100A000072726F72732E2046697820746865206553
:100A100072726F7220616E6420757365204D393972
:100A20003920746F20726573746172742E2028549B
:100A3000656D706572617475726520697320726589
:100A40007365742E20536574206974206166746523
:100A5000722072657374617274696E67290A004E40
:100A60006F20436865636B73756D207769746820C8
:100A70006C696E65206E756D6265722C204C6173B9
:100A800074204C696E653A2000636865636B73750A
:100A90006D206D69736D617463682C204C61737493
:100AA000204C696E653A20004C696E65204E756D6C
:100AB000626572206973206E6F74204C61737420BC
:100AC0004C696E65204E756D6265722B312C204C21
:100AD000617374204C696E653A20004D31313000ED
:100AE0004D3331004D383420582059205A204500CC
:100AF00053442072656164206572726F720A00440B
:100B00006F6E65207072696E74696E672066696CBD
:100B1000650A0020496E76616C696420657874729C
:100B200075646572200000000000000000000000F5
:100B3000000000009643000096430000C84342694D
:100B40006C696E656172204C6576656C696E6720B4
:100B5000477269643A0A00534420636172642072E8
:100B6000656D6F7665642E00534420636172642066
:100B7000696E7365727465642E0054617267657482
:100B80002066696C65206F70656E206661696C2EE9
:100B90000052656672657368206F6B2E0A007A706A
:100BA000726F62655F7A6F666673657420636F6DDE
:100BB0006669726D3A007A70726F62655F7A6F660D
:100BC000667365743A000A4C6576656C696E6720D9
:100BD000697320696E2070726F67726573732E007F
:100BE0004D3530300047323800473239004732380F
:100BF000000A4C6576656C696E6720697320696EC2
:100C00002070726F67726573732E004D3939392009
:100C10006F6B2E0A00473238205830205930004779
:100C20003238205A300047323820593000473238A5
:100C30002058300047323800556E6B6E6F776E2E3D
:100C4000004D353030004B494C4C45442E2000209F
:100C50002D20496E76616C696420657874727564C4
:100C60006572206E756D626572202100202D20490D
:100C70006E76616C69642065787472756465722043
:100C80006E756D62657220210A002020506C616EC5
:100C90006E657242756666657242797465733A2054
:100CA000002046726565204D656D6F72793A2000AF
:100CB000436F6D70696C65643A204A756C203236FA
:100CC00020323031380A00207C20417574686F7200
:100CD0003A20286E6F6E652C2064656661756C74B1
:100CE00020636F6E666967290A00323031372D3014
:100CF000372D30342031323A303000204C6173745B
:100D000020557064617465643A2000312E312E34B0
:100D10000A004D61726C696E0020536F66747761D2
:100D200072652052657365740A00205761746368A8
:100D3000646F672052657365740A002042726F7792
:100D40006E206F75742052657365740A00204578B3
:100D50007465726E616C2052657365740A00506F21
:100D600077657255700A0073746172740A00657257
:100D7000726F722077726974696E6720746F206673
:100D8000696C650A00205A3A0020593A0020583A06
:100D900000656E6473746F7073206869743A200024
:100DA00053544F50207072696E74696E670A004D1B
:100DB0006F76652061776179204F4B2E0A004D6F69
:100DC00076652061776179205820592E0A004D6F91
:100DD0007665206177617920582C592E2E2E00538C
:100DE000797374656D2073746F7020666F722073F1
:100DF000687574646F776E2E00446F6E6520736142
:100E000076696E672066696C652E0A004D3239007E
:100E10007C3C3E5E2B3D3F2F5B5D3B2C2A225C00E1
:100E200020706F736974696F6E206F7574206F66C0
:100E30002072616E67652E0A003F50726F626520F6
:100E4000002066697273740A005A005900580048FD
:100E50006F6D6520004D61727472697820736176E0
:100E600065206F6B2E0A0052756E6E696E67206981
:100E70006E204452592D52554E206D6F64650A0004
:100E8000473239204175746F20426564204C657685
:100E9000656C696E670A0028422961636B00284609
:100EA00029726F6E74002852296967687400284C93
:100EB00029656674003F2856296572626F73652044
:100EC0006C6576656C20697320696D706C617573F3
:100ED00069626C652028302D34292E0A0042616435
:100EE000205A2076616C75650A004E6F2062696C2D
:100EF000696E65617220677269640A00205A3A203F
:100F00000020593A200042656420583A20002020F1
:100F100020202046696C616D656E742072756E6F5D
:100F2000757431210A202020202048656174696E83
:100F300067206E6F7A7A6C650A2020202020506C22
:100F40006561736520776169742E2E2E00534420ED
:100F50007072696E74696E67206279746520004EE4
:100F60006F74205344207072696E74696E670A0052
:100F700046696C652064656C657465643A00446517
:100F80006C6574696F6E206661696C65642C2046BF
:100F9000696C653A20006F70656E206661696C65EA
:100FA000642C2046696C653A200025697300256928
:100FB0006D20256973002569682025696D202569E4
:100FC0007300256964202569682025696D202569DD
:100FD00073002569792025696420256968202569C1
:100FE0006D20256973005072696E742074696D6597
:100FF0003A20000000000000000000000000005443
:101000006F6F206661722066726F6D207265666513
:1010100072656E636520706F696E740A00204A7590
:101020006C20323620323031382031363A33373A7C
:10103000303700646576656C6F00706572202D59DD
:101040002E00532E5A2E0041637469766520457830
:101050007472756465723A20004D31313033206FFF
:101060006B2E0A0053442072656164206572726FB2
:10107000720A00206C653A00206C7A3A00206C7984
:101080003A006C783A00206C653A00206C7A3A009D
:10109000206C793A006C783A00206C653A00206C3C
:1010A0007A3A00206C793A006C783A006D6F766578
:1010B000207A206178697320616E642065206178F0
:1010C00069732E0A00536420696E69742066616931
:1010D0006C2120536F2063616E27742072657375D5
:1010E0006D65207072696E742E00536420696E699C
:1010F00074206661696C212E0A536F2063616E272C
:101100007420726573756D65207072696E742E003F
:101110004D31313031206F6B2D2D00546172676578
:10112000742066696C65206F70656E206661696CFD
:101130002E004E6F207072696E74206E6565646556
:10114000642E004361726420696E6974206661696F
:101150006C004D31313031206661696C20666F72F0
:10116000206361726420696E6974206661696C2E07
:101170000A005072696E7420636F6E74696E7565D3
:101180002066726F6D206C61737420627265616B92
:101190002E0A004E4F206E65656420746F20636FC9
:1011A0006E74696E756520746F207072696E742E2E
:1011B0000A004D31313032207374617475733A31E5
:1011C0002046696C653A004D3131303220737461CC
:1011D0007475733A300A004572726F7220777269C3
:1011E00074696E6720746F20454550524F4D210A37
:1011F00000290A002062797465733B2063726320C2
:101200000053657474696E67732053746F726564FC
:10121000202800202863616C63756C617465642903
:10122000210A0020213D2000454550524F4D2043CA
:101230005243206D69736D61746368202D2028739B
:10124000746F726564292000290A00206279746530
:10125000733B2063726320002073746F7265642097
:1012600073657474696E67732072657472696576EC
:101270006564202800204D61726C696E3D563037E0
:10128000290A0028454550524F4D3D0045455052D2
:101290004F4D2076657273696F6E206D69736D6155
:1012A000746368200048617264636F6465642044FD
:1012B000656661756C742053657474696E6773201C
:1012C0004C6F616465640A00F4010000F4010000E1
:1012D00064000000F4010000000096430000964303
:1012E0000000A0400000C8410000A2420000A2424D
:1012F0000040C8439A99BC4220204D383531205ACD
:10130000005A2D50726F6265204F666673657420B7
:10131000286D6D293A0A0020440020490020204D04
:101320003330312050005049442073657474696E25
:1013300067733A0A0020460020420020480020201F
:101340004D3134352053004D6174657269616C20F4
:1013500068656174757020706172616D6574657225
:10136000733A0A0020204D34323020530041757406
:101370006F20426564204C6576656C696E673A0A39
:1013800000205A0020590020204D323036205800CD
:10139000486F6D65206F66667365743A0A00204574
:1013A00000205A00205900205800204200205400FC
:1013B00020204D323035205300416476616E6365E4
:1013C000643A20533C6D696E5F6665656472617452
:1013D000653E20543C6D696E5F74726176656C5F2A
:1013E00066656564726174653E20423C6D696E5F3E
:1013F0007365676D656E745F74696D655F6D733E6F
:1014000020583C6D61785F78795F6A65726B3E2029
:101410005A3C6D61785F7A5F6A65726B3E20453C2D
:101420006D61785F655F6A65726B3E0A00205400EB
:1014300020520020204D323034205000416363653B
:101440006C65726174696F6E2028756E6974732F94
:101450007332293A20503C7072696E745F61636325
:10146000656C3E20523C726574726163745F6163A7
:1014700063656C3E20543C74726176656C5F616399
:1014800063656C3E0A00204500205A002059002068
:10149000204D3230312058004D6178696D756D20D6
:1014A000416363656C65726174696F6E2028756E47
:1014B0006974732F7332293A0A00204500205A00BC
:1014C00020590020204D3230332058004D6178697A
:1014D0006D756D206665656472617465732028752D
:1014E0006E6974732F73293A0A00204500205A0050
:1014F00020590020204D39322058005374657073F4
:101500002070657220756E69743A0A0020204D3291
:1015100030302044300A0020204D3230302044004A
:101520002044697361626C65640A0046696C616D90
:10153000656E742073657474696E67733A00202059
:101540004D3134392043203B20556E697473206936
:101550006E2043656C736975730A00202047323131
:10156000202020203B20556E69747320696E206D09
:101570006D0A00526573656E643A20006F6B0062FD
:101580007573793A2070617573656420666F722097
:10159000696E7075740A00627573793A20706175AE
:1015A00073656420666F7220757365720A006275D8
:1015B00073793A2070726F63657373696E670A009E
:1015C0004B494C4C45442E20004B696C6C206361A8
:1015D0007573656420627920746F6F206D75636820
:1015E00020696E6163746976652074696D652E008B
:1015F0004B494C4C2063617573656420627920749B
:101600006F6F206D75636820696E616374697665BC
:101610002074696D65202D2063757272656E74206B
:10162000636F6D6D616E643A20005072696E74650F
:10163000722068616C7465642E206B696C6C28295B
:101640002063616C6C6564210A00536176652065D6
:101650006E7669726F6E6D656E74204F4B2E2E2EF6
:10166000005361766520656E7669726F6E6D656E8A
:1016700074204F4B2E2E2E00506F776572206272B1
:1016800065616B210A00506F776572206272656137
:101690006B2100FFFFFF4D3234004D3233202573A4
:1016A000006175746F25692E670053442063617271
:1016B00064206F6B0A006F70656E526F6F742066E6
:1016C00061696C65640A00766F6C756D652E696E74
:1016D0006974206661696C65640A00534420696E10
:1016E0006974206661696C0A0057726974696E6773
:1016F00020746F2066696C653A20006F70656E20FB
:101700006661696C65642C2046696C653A20006FDF
:1017100070656E206661696C65642C2046696C6535
:101720003A200046696C652073656C656374656476
:101730000A002053697A653A200046696C65206F7B
:1017400070656E65643A20006F70656E2066616931
:101750006C65642C2046696C653A20002066696CD3
:10176000653A20004E6F7720002220706F730022B0
:1017700020706172656E743A2200535542524F5583
:1017800054494E452043414C4C2074617267657446
:101790003A22004B494C4C45442E20005472796942
:1017A0006E6720746F2063616C6C207375622D67A7
:1017B000636F64652066696C65732077697468205F
:1017C000746F6F206D616E79206C6576656C732E19
:1017D00000747279696E6720746F2063616C6C208D
:1017E0007375622D67636F64652066696C6573202D
:1017F0007769746820746F6F206D616E79206C65F5
:1018000076656C732E204D4158206C6576656C2092
:1018100069733A004572726F723A00457874727556
:10182000646500526573756D65006274643A0062A8
:10183000693A0000002100240027002A002D003012
:1018400000330001010000040107010A0100002229
:1018500000250028002B002E00310034000201007A
:1018600000050108010B01000020002300260029CB
:10187000002C002F003200000100000301060109C6
:101880000105050505070508080808020202020A05
:101890000A08080404040401010101010101010313
:1018A00003030303030303040707070C0C0C0C0CCE
:1018B0000C0C0C0202020206060606060606060BC1
:1018C0000B0B0B0B0B0B0B01021020200808102038
:1018D00040102040800201020108040201010204BC
:1018E000081020408080402010080402018004027B
:1018F00001804020100804020108040201010204D2
:101900000810204080010204081020408000000AD6
:101910000B02090C0D0E0807030401000000000073
:1019200000000000000000000000000000000000B7
:101930000000000000000000001211100000000074
:101940000000000000000000000000000000000097
:101950000000004265642068656174206661696CFE
:101960002E0A53797374656D2073746F702E0A504C
:101970006C656173652072657374617274206D614A
:101980006368696E652E00457874727564657220AF
:1019900068656174206661696C2E0A537973746599
:1019A0006D2073746F702E0A506C656173652072C0
:1019B000657374617274206D616368696E652E0071
:1019C0006265640A002C2073797374656D207374EA
:1019D0006F7070656421204865617465725F494469
:1019E0003A200048656174696E67206661696C65BC
:1019F000640048656174696E67206661696C65643E
:101A00000048656174696E67206661696C65642E63
:101A10000A53797374656D2073746F702E00486576
:101A20006174696E67206661696C65640048656110
:101A300074696E67206661696C65640048656174ED
:101A4000696E67206661696C65642E0A53797374E8
:101A5000656D2073746F702E0070012C019001274A
:101A600001B0012201C0011D01F001180110021393
:101A70000130020E016002090190020401C002FF60
:101A8000000003FA004003F5008003F000D003EBF0
:101A9000002004E6007004E100E004DC004005D70B
:101AA00000C005D2004006CD00D006C8008007C3A4
:101AB000003008BE00F008B900C009B400B00AAF99
:101AC00000B00BAA00D00CA500000EA000500F9B88
:101AD00000C01096005012910000148C00C01587B1
:101AE00000B0178200B0197D00D01B7800001E7373
:101AF0000040206E0090226900F024640040275FBF
:101B00000090295A00E02B5500102E500020304B39
:101B10000010324600E033410090353C001037376A
:101B20000070383200A0392D00B03A2800A03B23C5
:101B300000603C1E00103D1900903D1400103E0F47
:101B400000703E0A00C03E0500003F0000403FFB21
:101B5000FF803FF6FFC03FF1FF4572723A204D49CA
:101B60004E54454D5020424544004572723A204D36
:101B7000494E54454D50004D494E54454D502074EA
:101B80007269676765726564004572723A204D41FB
:101B90005854454D5020424544004572723A204DFC
:101BA000415854454D50004D415854454D502074B6
:101BB00072696767657265640043616E6E6F742059
:101BC0006F70656E2073756264697220006563686A
:101BD0006F3A00544845524D414C2052554E4157A2
:101BE000415900546865726D616C2052756E617761
:101BF00061790024F4D43050C38E20C2A2401782F1
:101C00008B7011127A910D816CD90AA861E108C715
:101C1000586607615143061E4B5D05C145A7041A6E
:101C2000411104093D9803713931034036DB0265E7
:101C3000339102D4305402802E1D02632CEE0175C4
:101C40002AC501B028A001102781018F2564012B2E
:101C5000244B01E0223401AC211F018D200D0180B5
:101C60001FFC00841EED00971DDF00B81CD200E6AB
:101C70001BC600201BBC00641AB200B219A8000ADF
:101C800019A0006A189900D117910040178B00B570
:101C900016840031167E00B31579003A157300C71B
:101CA000146F0058146A00EE136600881363002551
:101CB000135E00C7125B006C12570015125400C16E
:101CC00011510070114F0021114B00D61049008DA9
:101CD0001047004610440002104200C00F40008030
:101CE0000F3E00420F3C00060F3B00CB0E38009326
:101CF0000E37005C0E3500270E3400F30D3200C1A4
:101D00000D3100900D3000600D2E00320D2D0005BC
:101D10000D2C00D90C2B00AE0C2900850C29005C81
:101D20000C2700350C27000E0C2600E80B2400C4FD
:101D30000B2400A00B23007D0B23005A0B2100393C
:101D40000B2100180B2000F80A1F00D90A1E00BB47
:101D50000A1E009D0A1D00800A1D00630A1C004720
:101D60000A1B002C0A1B00110A1A00F7091A00DDD1
:101D7000091900C4091900AB091900920917007B61
:101D8000091800630917004C0916003609160020CF
:101D90000916000A091500F5081500E0081400CC22
:101DA000081400B8081400A4081400900813007D5B
:101DB0000812006B0813005808120046081200347D
:101DC000081100230811001208110001081100F089
:101DD000071000E0071000D0071000C0071000B087
:101DE000070F00A107100091070E0083070F007472
:101DF000070F0065070E0057070E0049070E003B4E
:101E0000070D002E070E0020070D0013070D00061A
:101E1000070D00F9060C00ED060D00E0060C00D4DD
:101E2000060C00C8060C00BC060C00B0060C00A492
:101E3000060B0099060C008D060B0082060B00773E
:101E4000060B006C060B0061060A0057060B004CDF
:101E5000060A0042060A0038060A002E060A002476
:101E6000060A001A060A001006090007060A00FD05
:101E7000050900F4050900EB050900E2050900D990
:101E8000050900D0050900C7050900BE050900B510
:101E9000050800AD050800A50509009C050800948B
:101EA0000508008C050800840508007C05080074FE
:101EB0000508006C050700650508005D050700566C
:101EC0000508004E050700470507004005080038D3
:101ED000050700310507002A050700230507001C38
:101EE000050600160507000F050700080506000295
:101EF000050700FB040600F5040700EE040600E8F1
:101F0000040600E2040700DB040600D5040600CF47
:101F1000040600C9040600C3040600BD040600B799
:101F2000040600B1040500AC040600A6040600A0E7
:101F30000405009B04060095040500900406008A31
:101F400004050085040500800406007A0405007578
:101F5000040500700405006B0405006604050061BB
:101F60000405005C04050057040500520405004DFB
:101F700004050048040500430405003E0404003A3B
:101F800004050035040500300404002C0405002776
:101F9000040400230405001E0404001A04040016AF
:101FA000040500110404000D0404000904050004E4
:101FB00004040000040400FC030400F8030400F41B
:101FC000030400F0030400EC030400E8030400E44D
:101FD000030400E0030400DC030400D8030400D47D
:101FE000030400D0030400CC030400C8030300C5AD
:101FF00003030024F404D9201BC40C5C0E9804C411
:10200000095F0265077101F405F900FB04B300489C
:10201000048700C10369005803550003034500BE4F
:10202000023A008402310053022A002902250004EA
:10203000022000E4011C00C8011900AF011700983C
:10204000011400840113007101100061011000519E
:10205000010E0043010D0036010B002B010B002087
:10206000010B00150109000C01090003010800FB28
:10207000000800F3000800EB000700E4000600DEA3
:10208000000600D8000600D2000600CC000500C7FC
:10209000000500C2000500BD000400B9000400B541
:1020A000000400B1000400AD000400A9000400A574
:1020B000000300A20003009F0004009B000300989F
:1020C0000003009500020093000300900003008DC0
:1020D0000002008B000300880002008600020084DA
:1020E000000300810002007F0002007D0002007BEF
:1020F00000020079000200770001007600020074FF
:1021000000020072000100710002006F0002006D09
:102110000001006C0002006A000100690002006713
:102120000001006600010065000100640002006219
:1021300000010061000100600001005F0002005D1D
:102140000001005C0001005B0001005A0001005921
:102150000001005800010057000100560001005521
:102160000001005400010053000000530001005220
:1021700000010051000100500001004F0001004E1D
:102180000000004E0001004D0001004C0001004B1A
:102190000000004B0001004A000100490001004816
:1021A0000000004800010047000100460000004612
:1021B000000100450000004500010044000100430B
:1021C0000000004300010042000000420001004105
:1021D00000000041000100400001003F0000003FFE
:1021E0000001003E0000003E0001003D0000003DF7
:1021F0000001003C0000003C0000003C0001003BEE
:102200000000003B0001003A0000003A00010039E4
:1022100000000039000100380000003800000038DC
:1022200000010037000000370001003600000036D2
:1022300000000036000100350000003500000035C8
:1022400000010034000000340000003400010033BD
:1022500000000033000000330001003200000032B3
:1022600000000032000100310000003100000031A8
:102270000001003000000030000000300001002F9D
:102280000000002F0000002F0000002F0001002E92
:102290000000002E0000002E0001002D0000002D87
:1022A0000000002D0000002D0001002C0000002C7B
:1022B0000000002C0000002C0001002B0000002B6F
:1022C0000000002B0000002B0001002A0000002A63
:1022D0000000002A0000002A000100290000002957
:1022E000000000290000002900000029000100284A
:1022F000000000280000002800000028000000283E
:102300000001002700000027000000270000002730
:102310000000002700010026000000260000002623
:102320000000002600000026000100250000002516
:102330000000002500000025000000250000002509
:1023400000010024000000240000002400000024FC
:1023500000000024000100230000002300000023EF
:1023600000000023000000230000002300000023E1
:1023700000010022000000220000002200000022D4
:1023800000000022000000220001002100000021C6
:1023900000000021000000210000002100000021B9
:1023A00000000021000100200000002000000020AB
:1023B000000000200000002000000020000000209D
:1023C000000000200001001F0000001F0000001F8F
:1023D0000000001F0000001F0000001F0000001F81
:1023E0000001001E0000001E0000001E0000001E74
:1023F0000000004D383420582059205A2045002034
:102400002F002042403A0020403A0020573A002056
:10241000573A00205A3A0020593A0020436F756E0F
:102420007420583A0020453A00205A3A0020593A80
:1024300000583A004361703A454D455247454E4376
:10244000595F5041525345523A300A004361703A45
:10245000434153455F4C494748545F4252494748BE
:10246000544E4553533A300A004361703A544F4733
:10247000474C455F4C49474854533A300A00436142
:10248000703A534F4654574152455F504F5745524B
:102490003A300A004361703A4C4556454C494E4724
:1024A0005F444154413A310A004361703A5A5F50E7
:1024B000524F42453A310A004361703A4155544FF8
:1024C0004C4556454C3A310A004361703A505249E6
:1024D0004E545F4A4F423A310A004361703A5052BB
:1024E0004F47524553533A300A004361703A4155C1
:1024F000544F5245504F52545F54454D503A310A53
:10250000004361703A454550524F4D3A310A0046FA
:1025100049524D574152455F4E414D453A4D6172CA
:102520006C696E20312E312E34202847697468750D
:10253000622920534F555243455F434F44455F55F1
:10254000524C3A68747470733A2F2F6769746875C7
:10255000622E636F6D2F4D61726C696E4669726D8C
:10256000776172652F4D61726C696E2050524F54C5
:102570004F434F4C5F56455253494F4E3A312E30E0
:10258000204D414348494E455F545950453A4933DF
:10259000504C55532045585452554445525F434F73
:1025A000554E543A3120555549443A636564653275
:1025B0006132662D343161322D343734382D396231
:1025C00031322D6335356336326633363766660A07
:1025D000004D65736820706F696E742063616E6E64
:1025E0006F74206265207265736F6C7665640A0093
:1025F0004D34323120696E636F727265637420707E
:102600006172616D657465722075736167650A003A
:10261000205A3A200020593A200042656420583A56
:1026200020004D3530300000007042000070420044
:10263000002042000000004E414E494E4954594985
:102640004E46CDCCCC3D0AD7233C17B7D13877CCFA
:102650002B329595E6241FB14F0A0000204100005F
:10266000C84200401C4620BCBE4CCA1B0E5AAEC518
:102670009D7400407A10F35A00A0724E18090010A1
:10268000A5D4E80000E87648170000E40B540200E7
:1026900000CA9A3B000000E1F50500008096980012
:1026A000000040420F000000A0860100000010273B
:1026B00000000000E80300000000640000000000CB
:1026C0000A00000000000100000000002C76D888FD
:1026D000DC674F0823DFC1DFAE59E1B1B796E5E310
:1026E000E453C63AE651997696E8E6C28426EB8929
:1026F0008C9B62ED407C6FFCEFBC9C9F40F2BAA5C6
:102700006FA5F490055A2AF75C936B6CF9676DC15D
:102710001BFCE0E40D47FEF520E6B500D0ED902E61
:102720000300943577050080841E080000204E0ABF
:10273000000000C80C333333330F986E12831141FD
:10274000EF8D2114893BE65516CFFEE6DB18D184C8
:102750004B381BF77C1D901DA4BBE42420328472EF
:102760005E228100C9F124ECA1E53D2726CF05CFEB
:1027700011241FBECFEFD1E2DEBFCDBF00E00CBF02
:1027800013E0A0E0B2E0EAEDFFEB01E00BBF02C016
:1027900007900D92A63AB107D9F723E1A6EAB3E074
:1027A00001C01D92A838B207E1F713E1C7EBD3E1EE
:1027B00000E006C021970109802FFE010E942ED063
:1027C000C63BD10780E00807A9F70E946DC80C94AA
:1027D000DBDF0C9400002F923F924F925F926F923A
:1027E0007F928F929F92AF92BF92CF92DF92EF92A1
:1027F000FF920F931F93CF93DF93CDB7DEB7C45BE8
:10280000D1090FB6F894DEBF0FBECDBFE0915606DA
:1028100020E4E29FF0011124EA5AFB4F80818130CD
:1028200091F4BF016F5F7F4F80E090E0DB014D913D
:10283000BD019C012356384FD9014C930196843039
:102840009105A1F708C010929D0710929E07109263
:102850009F071092A00710828581181614F08093AC
:1028600000028F010A5F1F4F8091A10780FF2EC0D9
:10287000EDECFBE184917F01BFEFEB1AFB0A8823AB
:1028800021F00E94B338F701F5CF809100020E9439
:10289000B3388AE00E94B338EDECFBE184917F010C
:1028A0002FEFE21AF20A811102C0780104C00E94DF
:1028B000B338F701F3CFD7018D917D01882319F04B
:1028C0000E94B338F8CF8AE00E94B33881E090E0EC
:1028D0009093520780935107C8010E941A77809104
:1028E00033078D3409F48FC7843511F40C94AB2D64
:1028F000873411F00C94B02D8091310790913207FC
:102900008D31910509F49DC6C4F48430910544F4D9
:10291000823091050CF055C097FF47C00C94CA2D2A
:102920008430910509F44FC64C9711F00C94CA2DD0
:1029300080E00E940C380C94CA2D8A32910509F46B
:1029400091C614F58E31910509F47FC6829711F076
:102950000C94CA2D6091090470E085EA99E00E9408
:10296000E08960910A0470E081EA99E00E94E089C0
:1029700060910B0470E08DE999E00E94E0898AE0A3
:102980000E94B3380C94CA2D8B35910509F461C6A9
:102990008C35910509F462C68A35910511F00C94C5
:1029A000CA2D1092AD030C94CA2D80910302882386
:1029B00011F40C94CA2D0E942E370E9462860C944A
:1029C000CA2D20910302222311F40C94CA2D11E088
:1029D000029709F010E00E942E3782E50E9422370C
:1029E000882309F462C10E94C0366B017C014090CB
:1029F000D1125090D2126090D3127090D4122091C4
:102A0000D5123091D6124091D7125091D812A89673
:102A10002CAF3DAF4EAF5FAFA8978091610790910B
:102A20006207A0916307B0916407AC968CAF9DAF2D
:102A3000AEAFBFAFAC97209165073091660740916C
:102A4000670750916807E4962CAF3DAF4EAF5FAF7C
:102A5000E49720E030E0A901C701B6010E9460D9E7
:102A6000882309F496C5A3019201AC966CAD7DADA7
:102A70008EAD9FADAC970E9460D9811111C0A89610
:102A80002CAD3DAD4EAD5FADA897E4966CAD7DAD80
:102A90008EAD9FADE4970E9460D9882309F479C573
:102AA00020E030E0A901C701B6010E9460D9881F6B
:102AB0008827881F18130DC080E090E0A0E8BFE3CE
:102AC000C458DF4F88839983AA83BB83CC57D040F7
:102AD0000CC020E030E040E85FEBC458DF4F2883B3
:102AE00039834A835B83CC57D040A3019201AC96D3
:102AF0006CAD7DAD8EAD9FADAC970E9436D0E896A3
:102B00006CAF7DAF8EAF9FAFE897A8962CAD3DAD73
:102B10004EAD5FADA897E4966CAD7DAD8EAD9FAD2B
:102B2000E4970E9436D0EC966CAF7DAF8EAF9FAF2E
:102B3000EC97E8962CAD3DAD4EAD5FADE897CA0180
:102B4000B9010E94C5D94B015C01EC962CAD3DAD9D
:102B50004EAD5FADEC97CA01B9010E94C5D99B018A
:102B6000AC01C501B4010E9437D00E94C9D2E096E1
:102B70006CAF7DAF8EAF9FAFE09720E030E040E0DC
:102B80005FE30E94C5D94B015C01A7019601C70113
:102B9000B6010E94C5D96B017C01A5019401C50154
:102BA000B4010E94C5D99B01AC01C701B6010E94C6
:102BB00036D00E94C9D29B01AC01C458DF4F688156
:102BC00079818A819B81CC57D0400E94C5D94B0125
:102BD0005C01AC962CAD3DAD4EAD5FADAC97C30185
:102BE000B2010E9437D020E030E040E05FE30E9475
:102BF000C5D96B017C01EC966CAD7DAD8EAD9FAD02
:102C0000EC979058E0962CAD3DAD4EAD5FADE097A2
:102C10000E9424D19B01AC01C501B4010E94C5D919
:102C20009B01AC01C701B6010E9437D0A3019201FC
:102C30000E9436D06B017C01E4962CAD3DAD4EADCB
:102C40005FADE497A8966CAD7DAD8EAD9FADA897B6
:102C50000E9437D020E030E040E05FE30E94C5D919
:102C60002B013C01E0962CAD3DAD4EAD5FADE09744
:102C7000E8966CAD7DAD8EAD9FADE8970E9424D1F6
:102C80009B01AC01C501B4010E94C5D99B01AC01F7
:102C9000C301B2010E9437D0A8962CAD3DAD4EAD18
:102CA0005FADA8970E9436D014C089E40E942237F5
:102CB000882329F00E94C0366B017C0103C0C12C1F
:102CC000D12C76018AE40E9422378823F9F00E94F1
:102CD000C036E4966CAF7DAF8EAF9FAFE49720E037
:102CE00030E0A901C701B6010E9460D981111EC060
:102CF00020E030E0A901E4966CAD7DAD8EAD9FADD6
:102D0000E4970E9460D9811111C043C420E030E0F3
:102D1000A901C701B6010E9460D9882309F439C40A
:102D2000E4961CAE1DAE1EAE1FAEE497D701C601E1
:102D3000B058A8968CAF9DAFAEAFBFAFA897E49642
:102D40002CAD3DAD4EAD5FADE4975058AC962CAF79
:102D50003DAF4EAF5FAFAC979C01AD01BC01CD0163
:102D60000E94C5D94B015C01AC962CAD3DAD4EAD7A
:102D70005FADAC97CA01B9010E94C5D99B01AC01F6
:102D8000C501B4010E9437D00E94C9D2C857DF4F95
:102D9000688379838A839B83C858D0408091D112FD
:102DA0009091D212A091D312B091D412E0968CAF30
:102DB0009DAFAEAFBFAFE097A7019601BC01CD01BB
:102DC0000E9437D0C458DF4F688379838A839B83FE
:102DD000CC57D0402091D5123091D6124091D712C5
:102DE0005091D812E8962CAF3DAF4EAF5FAFE89749
:102DF000E4962CAD3DAD4EAD5FADE497E8966CAD7D
:102E00007DAD8EAD9FADE8970E9437D0C057DF4FA4
:102E1000688379838A839B83C059D04080916107FE
:102E200090916207A0916307B0916407C058DF4F8B
:102E300088839983AA83BB83C058D040C458DF4F8E
:102E4000288139814A815B81CC57D040BC01CD01BA
:102E50000E9436D06B017C01209165073091660796
:102E60004091670750916807CC57DF4F288339831B
:102E70004A835B83C458D040C057DF4F28813981D3
:102E80004A815B81C059D040CC57DF4F688179813E
:102E90008A819B81C458D0400E9436D04B015C018E
:102EA0008091D9129091DA12A091DB12B091DC12CC
:102EB000CC56DF4F88839983AA83BB83C459D04003
:102EC0009C01AD016091690770916A0780916B0761
:102ED00090916C070E9436D0EC966CAF7DAF8EAFB0
:102EE0009FAFEC9720916D0730916E0740916F076F
:102EF00050917007C457DF4F288339834A835B831F
:102F0000CC58D0408091DD129091DE12A091DF125A
:102F1000B091E012C856DF4F88839983AA83BB83A0
:102F2000C859D040A7019601A8966CAD7DAD8EAD75
:102F30009FADA8970E94C5D92B013C01A501940122
:102F4000AC966CAD7DAD8EAD9FADAC970E94C5D9F2
:102F50009B01AC01C301B2010E9437D02B013C019F
:102F6000A5019401A8966CAD7DAD8EAD9FADA897DF
:102F70000E94C5D94B015C01A7019601AC966CADCE
:102F80007DAD8EAD9FADAC970E94C5D99B01AC01C4
:102F9000C501B4010E9436D0A30192010E94B5D0B0
:102FA0006B017C0120E030E0A9010E9460D987FF1D
:102FB0000AC02BED3FE049EC50E4C701B6010E9486
:102FC00037D06B017C01112351F02BED3FE049EC30
:102FD00050E4C701B6010E9436D06B017C0120E0AD
:102FE00030E0A901C701B6010E9460D981112CC04F
:102FF000C058DF4F288139814A815B81C058D04059
:10300000E0966CAD7DAD8EAD9FADE0970E9460D92E
:1030100081111AC0CC57DF4F288139814A815B81E9
:10302000C458D040E8966CAD7DAD8EAD9FADE897AD
:103030000E9460D9811108C02BEDC22E2FE0D22E44
:1030400029ECE22E20E4F22EC857DF4F2881398187
:103050004A815B81C858D040C701B6010E94C5D9DA
:103060009B01AC010E94C5D94B015C01EC962CADD3
:103070003DAD4EAD5FADEC97CA01B9010E94C5D917
:103080009B01AC01C501B4010E9437D00E94C9D296
:103090004B015C012FE632E143E85AE30E9460D91C
:1030A00087FD73C2C501B4010E94CAD10E949BD1A1
:1030B000E6967FAF6EAFE697DB01AB2B31F4E1E034
:1030C000F0E0E696FFAFEEAFE697E6962EAD3FADA9
:1030D000E697B90180E090E00E9464D94B015C0161
:1030E0009B01AC01C701B6010E9424D1E0966CAFF0
:1030F0007DAF8EAF9FAFE097A5019401EC966CADCC
:103100007DAD8EAD9FADEC970E9424D1C857DF4FA7
:10311000688379838A839B83C858D040C856DF4F21
:10312000288139814A815B81C859D040C457DF4F1B
:10313000688179818A819B81CC58D0400E9436D0A9
:10314000A50194010E9424D1C457DF4F688379837D
:103150008A839B83CC58D040E0962CAD3DAD4EADDC
:103160005FADE097CA01B9010E94C5D920E030E007
:1031700040E05FE30E94C5D99B01AC0160E070E0D4
:1031800080E89FE30E9436D0EC966CAF7DAF8EAFA7
:103190009FAFEC97CC56DF4F88819981AA81BB8184
:1031A000C459D04089879A87AB87BC87C856DF4F00
:1031B000288139814A815B81C859D0402D873E875B
:1031C0004F87588B60913B0270913C02072E000C98
:1031D000880B990B0E9466D920916202309163029C
:1031E00040916402509165020E94C5D92AE037EDF2
:1031F00043E25CE30E94C5D9C058DF4F68837983FE
:103200008A839B83C058D0400E94FEA09B01AC01E2
:1032100028533F4F4F4F5F4FCC57DF4F28833983A1
:103220004A835B83C458D040A5964FACA597A69619
:103230005FACA697A7966FACA797A8967FACA89708
:1032400022242394312C99E1D92EE6964EAD5FAD20
:10325000E6972416350609F458C10E945AAB0E941D
:10326000FEA0DC01CB01CC57DF4F288139814A8198
:103270005B81C458D040821B930BA40BB50BB7FDE8
:1032800013C00E94FEA09B01AC0128533F4F4F4F3B
:103290005F4FCC57DF4F288339834A835B83C45801
:1032A000D04080E00E948D83DA94DD2009F44BC089
:1032B000EC962CAD3DAD4EAD5FADEC97AC966CADE4
:1032C0007DAD8EAD9FADAC970E94C5D94B015C0121
:1032D000E0962CAD3DAD4EAD5FADE097B201C301C0
:1032E0000E94C5D9A50194010E9437D07B018C01B1
:1032F000EC962CAD3DAD4EAD5FADEC97B201C30188
:103300000E94C5D94B015C01E0962CAD3DAD4EADA0
:103310005FADE097AC966CAD7DAD8EAD9FADAC97DB
:103320000E94C5D99B01AC01C501B4010E9436D0F1
:103330002B013C01C701D801AC968CAF9DAFAEAF5D
:10334000BFAFAC975BC0B10180E090E00E9464D950
:10335000E0962CAD3DAD4EAD5FADE0970E94C5D976
:103360004B015C010E9421D16B017C01C501B401BC
:103370000E94BED24B015C01A7019601A8966CADDC
:103380007DAD8EAD9FADA8970E94C5D92B013C01A4
:10339000A5019401E4966CAD7DAD8EAD9FADE49733
:1033A0000E94C5D99B01AC01C301B2010E9437D074
:1033B0002B013C01A5019401A8966CAD7DAD8EADAD
:1033C0009FADA8970E94C5D94B015C01A70196014A
:1033D000E4966CAD7DAD8EAD9FADE4970E94C5D9EE
:1033E0009B01AC01C501B4010E9436D0AC966CAF14
:1033F0007DAF8EAF9FAFAC9709E1D02E9201A301B4
:10340000C458DF4F688179818A819B81CC57D04035
:103410000E9437D069837A838B839C83AC962CADD2
:103420003DAD4EAD5FADAC97C057DF4F6881798140
:103430008A819B81C059D0400E9437D06D837E83A2
:103440008F839887C857DF4F288139814A815B81F4
:10345000C858D04069857A858B859C850E9437D075
:1034600069877A878B879C87C457DF4F288139818A
:103470004A815B81CC58D0406D857E858F85988947
:103480000E9437D06D877E878F87988B80917202DC
:10349000882321F0CE0101960E946181C090280A04
:1034A00089819A81AB81BC8188A399A3AAA3BBA37C
:1034B0008D819E81AF81B8858CA39DA3AEA3BFA350
:1034C00089859A85AB85BC8588A799A7AAA7BBA73C
:1034D000CE0180960E94C137C058DF4FE880F98046
:1034E0000A811B81C058D0409E01235F3F4FAE012F
:1034F000485D5F4FBE016C5D7F4FCE0180960E949C
:10350000FD8B3FEF231A330AA0CEC090280A80918A
:10351000610790916207A0916307B091640788A347
:1035200099A3AAA3BBA38091650790916607A09178
:103530006707B09168078CA39DA3AEA3BFA380913A
:10354000690790916A07A0916B07B0916C0788A7F3
:1035500099A7AAA7BBA7CE0180960E94C137C058E1
:10356000DF4FE880F9800A811B81C058D0402DE6EA
:1035700037E0AE01485D5F4FBE016C5D7F4FCE010D
:1035800080960E94FD8B0E9431330E94C9370C94B3
:10359000CA2DE4E1F8E184918F010F5F1F4F88236A
:1035A00021F00E94B338F801F6CFE6E5F2E084910D
:1035B0008F010F5F1F4F882311F40C94CA2D0E94B6
:1035C000B338F801F4CF80E50E942237882329F030
:1035D0000E9480366B017C0103C0C12CD12C760186
:1035E00083E50E942237882361F00E94C03620E0E4
:1035F00030E04AE754E40E94C5D90E949BD16B0198
:103600007C010E942EAD0E94C9378091590790918C
:103610005A07A0915B07B0915C07C80ED91EEA1E3D
:10362000FB1E0E94FEA0DC01CB018C199D09AE0996
:10363000BF09B7FD02C00C94CA2D80E00E948D83A3
:10364000F0CF0E94A95A0C94CA2D0E94A9590C943B
:10365000CA2D81E08093AD030C94CA2D0E94245999
:103660000C94CA2D80910302882311F40C94CA2D66
:1036700089E40E942237182F882321F00E94903677
:10368000E62E01C0E12C8AE40E942237F82E88231E
:1036900031F00E949036062F111104C00BC000E0DB
:1036A0001123B9F057E05E1510F00C94A031ECE650
:1036B000F2E003C00530D8F70CC084918F010F5F92
:1036C0001F4F882311F40C94CA2D0E94B338F801BF
:1036D000F4CF0E942733112341F120910B07309141
:1036E0000C074E2D4203B001439F700D1124209111
:1036F000070730910807620F731F072E000C880B15
:10370000990B0E9466D92091E1123091E21240910A
:10371000E3125091E4120E9437D0609361077093D6
:1037200062078093630790936407FF2039F120912B
:103730000D0730910E070203B001039F700D112495
:103740008091090790910A07680F791F072E000CD6
:10375000880B990B0E9466D92091E5123091E612F0
:103760004091E7125091E8120E9437D060936507AC
:1037700070936607809367079093680780E50E94BF
:10378000F3368823E1F00E94B1368823C1F011237B
:10379000B1F020E030E040E751E4609161077091C2
:1037A000620780916307909164070E9436D060930E
:1037B000610770936207809363079093640786E4C0
:1037C0000E9422378823D9F00E94C0366B017C0109
:1037D00020E030E0A9010E9480D2181684F420E095
:1037E00030E040E752E4C701B6010E9424D1609363
:1037F00062027093630280936402909365020E9458
:1038000062860C94CA2D80913107909132078637D9
:10381000910511F40C940B240CF0C5C08C34910567
:1038200009F436C30CF05CC08831910509F48CC2F0
:103830006CF58231910509F40EC584F497FF02C03E
:103840000C94CA2D823091050CF4ABC1419711F054
:103850000C94CA2D0E9411860C94CA2D85319105B5
:1038600009F468C23CF4449711F00C94CA2DEAE9BB
:10387000F2E01DC28631910509F460C2479711F04C
:103880000C94CA2D0E9401590C94CA2D8E319105B9
:1038900009F473C294F48A31910509F466C20CF4F8
:1038A0005EC28B31910509F464C24C9711F00C94FF
:1038B000CA2D0E94A2580C94CA2D8032910509F499
:1038C00060C20CF4A1C28A32910509F4A1C28B3402
:1038D000910511F00C94CA2D0E9475C00C94CA2D4C
:1038E0008A36910509F470C4B4F58435910509F45C
:1038F000B2C4E4F48135910509F497C44CF48D34D5
:10390000910511F00C94CA2D0E9421AF0C94CA2D80
:103910008235910509F49BC48335910511F00C940F
:10392000CA2D81E08093AC030C94CA2D8C3591058F
:1039300009F4DFC434F48535910509F4BFC40C944F
:10394000CA2D8836910509F4A7C28936910509F474
:10395000C6C30C94CA2D8F36910509F4CFC284F4E6
:103960008C36910509F46DC30CF44DC48D36910568
:1039700009F4FBC38E36910509F4ADC20C94CA2D2F
:103980008137910509F469C30CF45FC3823791054F
:1039900009F438C58337910511F00C94CA2D0E94A3
:1039A00008BA0C94CA2D803951E0950711F40C9493
:1039B000292B0CF071C08C3C910511F40C94372527
:1039C000A4F58B39910509F4A7C384F488379105D0
:1039D00009F4BEC70CF456C78937910509F4BFC76F
:1039E0008C38910509F465C30C94CA2D883C910567
:1039F00009F4BBC734F48E3B910509F4D1C30C9490
:103A0000CA2D893C910509F4FAC78B3C910511F048
:103A10000C94CA2D50E0E52E5AE0F52E09E712E08D
:103A200064E0D62ED00E0C9428258D3D910511F41E
:103A30000C94FA26A4F48E3C910511F40C940E26F5
:103A400014F40C94A325833D910511F40C94552690
:103A50008C3D910511F40C94ED260C94CA2D8D32F9
:103A6000B1E09B0711F40C943D273CF4823E910594
:103A700011F40C9413270C94CA2D8F32F1E09F0798
:103A800011F40C94DB278336914011F00C94CA2D6D
:103A9000E4E1F8E10C947F2D873F31E0930711F4C6
:103AA0000C94992BDCF5853A51E0950711F40C94B0
:103AB000902BACF48239B1E09B0711F40C94302BBD
:103AC00014F40C942C2B8A39F1E09F0709F4C1C23D
:103AD000843A914011F40C94342B0C94CA2D843FF9
:103AE00031E0930711F40C94932B4CF48C3A9140F1
:103AF00011F00C94CA2D0E94B0680C94CA2D853F19
:103B0000A1E09A0711F40C94962B863F914011F096
:103B10000C94CA2D0E94F87C0C94CA2D873EE3E0D9
:103B20009E0711F40C94952DECF4823523E0920756
:103B300011F40C949C2B3CF48835924011F40C94B5
:103B4000F32B0C94CA2D833553E0950711F40C9494
:103B50009F2B803A934011F00C94CA2D0E949656E8
:103B60000C94CA2D8E34B4E09B0711F40C94A52D4F
:103B70004CF48D34944011F00C94CA2D0E9458647A
:103B80000C94CA2D8F3424E0920711F40C94A82DC4
:103B9000803B944011F00C94CA2D0E94AD600C94AF
:103BA000CA2D00912F071091300780E50E9422371F
:103BB000882361F00E9480366B017C01BB24B394A2
:103BC000672B682B692B31F4B12C04C0B12CC12CAC
:103BD000D12C760183E50E942237882399F00E9438
:103BE000C03620E030E04AE754E40E94C5D90E9484
:103BF0009BD16B017C01B1100CC0672B682B692B2A
:103C000041F43BC0B11005C00115110511F00C9431
:103C1000D12D83E090E0909352078093510781E08B
:103C20008093E9030E942EAD0E94C937C114D104CC
:103C3000E104F104A1F18091590790915A07A091F4
:103C40005B07B0915C07C80ED91EEA1EFB1E0E94DE
:103C5000FEA0DC01CB018C199D09AE09BF09B7FD9F
:103C600004C01092E9030C94CA2D8091E9038823C3
:103C7000C1F380E00E948D83EACF0115110511F098
:103C80000C94D12D83E090E09093520780935107DC
:103C900081E08093E9030E942EAD0E94C937809194
:103CA000E9038823F1F280E00E948D83F8CF8491AC
:103CB0008F010F5F1F4F882321F00E94B338F80156
:103CC000F6CF1092620D1092610D40E050E0BA0103
:103CD0008CE29BE00E94504E8BE1ECE2FBE0DE01C7
:103CE000159601900D928A95E1F780912A0B90919B
:103CF0002B0B9C838B838DED92E09A83898340E02C
:103D000050E0BE016F5F7F4F84EA93E00E944CB0A9
:103D1000CE0101960E94CB82EBE8F2E084918F0104
:103D20000F5F1F4F882311F40C94CA2D0E94B338E3
:103D3000F801F4CF0E94F79B0C94CA2D1092DC0A74
:103D40001092DD0A0C94CA2D8091DD0A882319F0A7
:103D500081E08093DC0A0E9475C00C94CA2D1092F9
:103D6000DC0A0E94B5C00C94CA2D0E94E7580C943E
:103D7000CA2D0E94AA580C94CA2D0E946D570C940B
:103D8000CA2D8091DC0A81110E942EADE0902F0790
:103D9000F090300780E50E94F336182F882319F041
:103DA0000E94B136182F8091DD0A882311F40C94FB
:103DB000CA2D412F61E0C7010E94D59983E50E9479
:103DC0002237882381F00E949036AB01BC014093DA
:103DD000580D5093590D60935A0D70935B0D8DE003
:103DE0009BE00E94504E6FED7AE08BED93E00E94D5
:103DF00083D38091DD0A882319F081E08093DC0A67
:103E000011110C94CA2DA7CF0E94A1560C94CA2D53
:103E100083E50E942237882311F40C94CA2D0E9456
:103E2000A036E82E80E50E942237882341F00E94C8
:103E300090368B0177FF02C00C94CA2D02C00DE0B2
:103E400010E0902FE4E2F4E088E28E0F24919217C4
:103E500029F031968E13FACF0C94F12DE4E1F8E1BC
:103E600084918F010F5F1F4F882321F00E94B33888
:103E7000F801F6CFEBEAF2E084918F010F5F1F4F5C
:103E8000882311F40C94CA2D0E94B338F801F4CFA2
:103E90000E94B5C00C94CA2D88E690E00E949D391E
:103EA00081110C94CA2D8091A10783FF02C00C944C
:103EB000CA2D83E50E942237882349F00E94C0362C
:103EC0000E9495D1CB010E94BA820E94C0360E9406
:103ED000D5CE0C94CA2D8EE40E942237882311F48B
:103EE0000C94CA2D0E9490366093390770933A075C
:103EF00080933B0790933C070C94CA2D83E50E9466
:103F00002237882319F00E94A03601C080E08093F8
:103F1000A107EDECFBE184918F010F5F1F4F882318
:103F200021F00E94B338F801F6CFE8ECF2E084917A
:103F30008F010F5F1F4F882321F00E94B338F801D3
:103F4000F6CF8091A1078823A1F11AEBC12E12E0D0
:103F5000D12EE12CF12C20E08091A10790E00E2CD5
:103F600002C0959587950A94E2F780FF17C0BB249D
:103F7000B394B20E222319F08CE20E94B338F601FA
:103F800025913491F901849189010F5F1F4F882396
:103F900021F00E94B3389801F5CF2B2DFFEFEF1AD7
:103FA000FF0A32E0C30ED11C45E0E416F104A1F68D
:103FB00043C0E4ECF2E084918F010F5F1F4F882330
:103FC000D9F10E94B338F801F6CF8AE50E94F336A2
:103FD000882311F40C94C72B0E94C0366B017C011E
:103FE00020E030E040EA51EC0E9480D287FF02C01E
:103FF0000C94B92B20E030E040EA51E4C701B6014F
:104000000E9460D9181614F40C94B92BC092CD12EA
:10401000D092CE12E092CF12F092D01280E00E94A5
:10402000CD676091CD127091CE128091CF12909198
:10403000D01242E00E94663D8AE00E94B3380C94A0
:10404000CA2D109217020C94CA2D8FEC92E00E9498
:104050005D830E94FEB90C94CA2D83E50E9422372D
:10406000882369F00E94A0368D3320F480932602C5
:104070000C94CA2D8CE3809326020C94CA2DEDEC8F
:10408000FBE184918F010F5F1F4F882321F00E9475
:10409000B338F801F6CF4091260250E060E070E0BE
:1040A00088ED92E00E9489898AE00E94B3380C94DE
:1040B000CA2D8091A10783FF02C00C94CA2D83E50D
:1040C0000E942237882311F40C94CA2D0E94C03616
:1040D0000E9495D1CB010E94A3370C94CA2D89E68A
:1040E00090E00E949D39811111C0EFEDF2E08491C2
:1040F0008F010F5F1F4F882321F00E94B338F80112
:10410000F6CF0E94AABB8AE00E94B33810925207F1
:10411000109251070C94CF3183E50E9422378823F7
:1041200011F40C94CA2D0E94A0368D3308F08CE354
:10413000809357070E94FEA06B017C0120915707D6
:1041400030E0A8EEB3E00E94CCDFDC01CB018C0DA7
:104150009D1DAE1DBF1D8093530790935407A093E0
:104160005507B09356070C94CA2D8DE690E00E9437
:104170009D3981110C94CA2D8091A10783FF02C043
:104180000C94CA2D83E50E94223781110C94062ECF
:1041900082E50E94223781110C94062E0C94CA2DC0
:1041A0008091A10783FF02C00C94CA2D83E50E9471
:1041B000223781110C94182E82E50E94223781113A
:1041C0000C94182E0C94CA2D83E50E942237882364
:1041D00039F00E9490368B016F3F710519F010F095
:1041E0000FEF10E080E50E942237811106C0109386
:1041F0004E0400934D040C94CA2D0E94A0368111E8
:104200000C94CA2DF4CF80E50E942237811106C09C
:1042100010924E0410924D040C94CA2D0E949036B8
:10422000672B11F00C94CA2DF3CF0E9461A80E9455
:104230002EAD0E944D8310924E0410924D0468EEF4
:1042400073E080E090E00E9454A10C94CA2D10927B
:10425000AC030C94CA2D83E50E9422378823A1F079
:104260000E94C03620E030E04AE754E40E94C5D9FD
:104270000E949BD1609327027093280280932902A9
:1042800090932A020C94CA2D88E50E94F33681117E
:104290000C94282E89E50E94F33681110C94282E67
:1042A0008AE50E94F33681110C94282E85E40E9441
:1042B000F33681110C94282E0C94522E83E50E9423
:1042C000F336882311F40C94CA2D0E94C03620E0E6
:1042D00030E04AE754E40E94C5D90E949BD1609324
:1042E0005D0770935E0780935F07909360070C945F
:1042F000CA2DA9E7CA2EA2E0DA2EB0E1EB2EBAE071
:10430000FB2E10E0D6018D916D010E94F3368823BB
:1043100009F46DC0133009F063C00E94C0364B0130
:104320005C0120E030E040EA51E40E9460D987FF60
:104330004EC0A501940160911C0A70911D0A8091E4
:104340001E0A90911F0A0E9424D12B013C019B015F
:10435000AC016091D4097091D5098091D6099091F2
:10436000D7090E94C5D96093D4097093D509809369
:10437000D6099093D709A301920160910C0A70911C
:104380000D0A80910E0A90910F0A0E94C5D9609380
:104390000C0A70930D0A80930E0A90930F0A609195
:1043A000AE077091AF078091B0079091B1070E945E
:1043B00064D9A30192010E94C5D90E949BD1609348
:1043C000AE077093AF078093B0079093B1078092C8
:1043D0001C0A90921D0AA0921E0AB0921F0A07C0E2
:1043E0000E94C036F70160837183828393831F5FCD
:1043F000F4E0EF0EF11C143009F084CF0E94928B90
:104400000C94CA2D84E40E94F336882309F4FDC17C
:10441000EAE2F3E084918F010F5F1F4F882321F0C0
:104420000E94B338F801F6CF43E064E081ED92E1F9
:104430000E9491BAE1E2F3E084918F010F5F1F4F78
:10444000882321F00E94B338F801F6CF2091E112C1
:104450003091E2124091E3125091E4126091D11236
:104460007091D2128091D3129091D4120E9436D0C2
:104470006C966CAF7DAF8EAF9FAF6C972091E512BD
:104480003091E6124091E7125091E8126091D512F6
:104490007091D6128091D7129091D8120E9436D086
:1044A000A0966CAF7DAF8EAF9FAFA0972091E91221
:1044B0003091EA124091EB125091EC126091D912B6
:1044C0007091DA128091DB129091DC120E9436D04A
:1044D000A4966CAF7DAF8EAF9FAFA497CE01885AE4
:1044E0009F4F0E94E8BAE8E1F3E084918F010F5FEB
:1044F0001F4F882321F00E94B338F801F6CF809136
:10450000D1129091D212A091D312B091D412609690
:104510008CAF9DAFAEAFBFAF60978091D512909139
:10452000D612A091D712B091D81264968CAF9DAFDD
:10453000AEAFBFAF64978091D9129091DA12A0917B
:10454000DB12B091DC1268968CAF9DAFAEAFBFAFFF
:104550006897CE01845B9F4F0E94C137CE01845B78
:104560009F4F0E94E8BAEFE0F3E084918F010F5F64
:104570001F4F882321F00E94B338F801F6CF6096D0
:104580008CAD9DADAEADBFAD609724968CAF9DAFA9
:10459000AEAFBFAF249764968CAD9DADAEADBFAD51
:1045A000649728968CAF9DAFAEAFBFAF2897689643
:1045B0008CAD9DADAEADBFAD68972C968CAF9DAF69
:1045C000AEAFBFAF2C97CE01805C9F4F0E946B7443
:1045D000CE01805C9F4F0E94E8BAE6E0F3E0849150
:1045E0008F010F5F1F4F882321F00E94B338F8011D
:1045F000F6CFCE01805C9F4F0E94C137CE01805C18
:104600009F4F0E94E8BAEDEFF2E084918F010F5FB7
:104610001F4F882321F00E94B338F801F6CFCE0156
:10462000805C9F4F0E946B74CE01805C9F4F0E9404
:10463000E8BAE4EFF2E084918F010F5F1F4F882307
:1046400021F00E94B338F801F6CF2FB7F8946091AB
:10465000420A7091430A8091440A9091450A2FBF03
:104660000E9466D968AB79AB8AAB9BAB2FB7F89445
:104670006091460A7091470A8091480A9091490AD0
:104680002FBF0E9466D96CAB7DAB8EAB9FAB2FB7B3
:10469000F89460914A0A70914B0A80914C0A90916B
:1046A0004D0A2FBF0E9466D968AF79AF8AAF9BAF22
:1046B0002FB7F89460914E0A70914F0A8091500A7A
:1046C0009091510A2FBF0E9466D96CAF7DAF8EAF1B
:1046D0009FAF40E064E0CE01C0960E9491BAEBEE3D
:1046E000F2E084918F010F5F1F4F882321F00E9419
:1046F000B338F801F6CF0E94C48680913D079091AF
:104700003E07A0913F07B091400788A399A3AAA3B1
:10471000BBA38091410790914207A0914307B091BC
:1047200044078CA39DA3AEA3BFA38091450790919E
:104730004607A0914707B091480788A799A7AAA75D
:10474000BBA783E090E00E9410AD6CA77DA78EA769
:104750009FA743E064E0CE0180960E9491BA6096E4
:104760002CAD3DAD4EAD5FAD609768A179A18AA13A
:104770009BA10E9436D069837A838B839C83649645
:104780002CAD3DAD4EAD5FAD64976CA17DA18EA10A
:104790009FA10E9436D06D837E838F839887689611
:1047A0002CAD3DAD4EAD5FAD689768A579A58AA5E6
:1047B0009BA50E9436D069877A878B879C8720913A
:1047C000DD123091DE124091DF125091E0126CA5A3
:1047D0007DA58EA59FA50E9436D06D877E878F8789
:1047E000988BE2EEF2E084918F010F5F1F4F8823D8
:1047F00021F00E94B338F801F6CF43E064E0CE0127
:1048000001960E9491BA0C94CA2D0E942EAD0E946E
:10481000EBBA0C94CA2D85E40E94F336882381F00C
:104820000E94B136882361F0EDECFBE184918F01A9
:104830000F5F1F4F882321F00E94B338F801F6CF95
:1048400081E40E94F336882381F00E94B1368823E8
:1048500061F0E4E3F3E084918F010F5F1F4F882341
:1048600021F00E94B338F801F6CF00912F07109184
:104870003007D8018D918D01882309F4DDCB0E948A
:10488000B338F7CFE0E5F3E084918F010F5F1F4F5E
:10489000882321F00E94B338F801F6CFE8E4F3E072
:1048A00084918F010F5F1F4F882321F00E94B3383E
:1048B000F801F6CF789B03C001EF12E002C006EFCB
:1048C00012E0F80181918F01882319F00E94B3381A
:1048D000F8CF8AE00E94B338E0E4F3E084918F01DE
:1048E0000F5F1F4F882321F00E94B338F801F6CFE5
:1048F000029B03C001EF12E002C006EF12E0D801F4
:104900008D918D01882319F00E94B338F8CF8AE089
:104910000E94B338E8E3F3E084918F010F5F1F4FEB
:10492000882321F00E94B338F801F6CF809100016E
:1049300083FF03C001EF12E002C006EF12E0F801AE
:1049400081918F01882309F477CB0E94B338F7CF88
:1049500081E080931202809310070C94CA2D10926C
:104960001202109210070C94CA2D88EC90E00E945D
:104970009D3981110C94CA2D84E40E94F33688235A
:10498000D1F10E94C03611E020E030E0A9010E9480
:1049900060D9811101C010E01093240A112359F14C
:1049A0000091A80310E00E94C036000F111F000FF5
:1049B000111FF801EF5AFD4F608371838283938347
:1049C00020E030E0A9016091510270915202809183
:1049D0005302909154020E9460D981110CC080E072
:1049E00090E0A0E4B0E48093510290935202A0932F
:1049F0005302B09354020E941D860C94CA2D70EF8E
:104A0000E72E79E0F72E09E712E0E4E0DE2ED00E83
:104A1000D8018D918D010E94F336882349F00E94C0
:104A2000C0360E949BD1F701608371838283938398
:104A3000F4E0EF0EF11CD012EBCF0E94218A0C940F
:104A4000CA2DF4E0EF0EF11CD01611F40C94CA2D0F
:104A5000D8018D918D010E94F336882391F30E9435
:104A6000C036F7016083718382839383EACF83E545
:104A70000E94F3368823D9F00E94C036AB01BC01F6
:104A80004093EC095093ED096093EE097093EF09A0
:104A90004093E4095093E5096093E6097093E709B0
:104AA00084EC93E00E94C3898AE00E94B33880E5D9
:104AB0000E94F336882399F00E94C036AB01BC01F6
:104AC0004093EC095093ED096093EE097093EF0960
:104AD00087EA93E00E94C3898AE00E94B33882E5A6
:104AE0000E94F336882399F00E94C036AB01BC01C6
:104AF0004093E8095093E9096093EA097093EB0940
:104B000088E893E00E94C3898AE00E94B33884E574
:104B10000E94F336882311F40C94CA2D0E94C036EB
:104B2000AB01BC014093E4095093E5096093E609A9
:104B30007093E7098AE693E00E94C3898AE00E94A5
:104B4000B3380C94CA2D83E50E94F336882351F0C4
:104B50000E94C0366093E0097093E1098093E209F6
:104B60009093E30984E50E94F336882351F00E9474
:104B7000C0366093D8097093D9098093DA0990936D
:104B8000DB0982E40E94F336882351F00E948036CC
:104B90006093DC097093DD098093DE099093DF094F
:104BA00088E50E94F336882351F00E94C036609356
:104BB000C8097093C9098093CA099093CB0989E504
:104BC0000E94F336882351F00E94C0366093CC09CE
:104BD0007093CD098093CE099093CF098AE50E9406
:104BE000F336882351F00E94C0366093D009709349
:104BF000D1098093D2099093D30985E40E94F336BA
:104C0000882309F4C7C70E94C0366093D409709303
:104C1000D5098093D6099093D709BCC729E7A22E5E
:104C200022E0B22E31EDC32E32E1D32E4BE1E42E41
:104C300044E0F42E00E010E0D5018D915D010E946A
:104C4000F336882311F10E94C0362B013C01F70195
:104C500020813181428153810E9436D09B01AC0179
:104C6000D6016D917D918D919C910E9437D0F60176
:104C70006083718382839383D7014D925D926D929D
:104C80007C921397C8010E9487350F5F1F4FB4E0D5
:104C9000CB0ED11CE4E0EE0EF11C0330110561F6E1
:104CA0000E9439360E94EBBA75C7EDECFBE18491A6
:104CB0008F010F5F1F4F882321F00E94B338F80146
:104CC000F6CF83E50E94F336882321F00E94B136A7
:104CD00080937202E4E1F4E084918F010F5F1F4F33
:104CE000882321F00E94B338F801F6CF8091720238
:104CF000811103C0E0E1F4E002C0ECE0F4E0849153
:104D00008F010F5F1F4F882321F00E94B338F801F5
:104D1000F6CFE4E0F4E084918F010F5F1F4F88230A
:104D200021F00E94B338F801F6CF40916F135091F3
:104D30007013609171137091721382E094E00E947D
:104D4000C3894091731350917413609175137091DE
:104D500076138FEF93E00E94C389409177135091AF
:104D600078136091791370917A138CEF93E00E941D
:104D7000C389E4EFF3E084918F010F5F1F4F882315
:104D800021F00E94B338F801F6CF409166025091AD
:104D90006702609168027091690282EF93E00E945D
:104DA000C38940916A0250916B0260916C027091CC
:104DB0006D028FEE93E00E94C38940916E02509184
:104DC0006F0260917002709171028CEE93E00E940C
:104DD000C3898AE00E94B338DDC683E50E9422378A
:104DE000882309F4D7C60E94903670933C026093E2
:104DF0003B02D0C68DED90E00E949D398111CAC65C
:104E000083E50E942237882309F4C4C60091A803D1
:104E100010E00E949036000F111FF801EF5FFD4F68
:104E200071836083B7C680E50E94F336882309F456
:104E3000B1C60E9490366B017C0183E50E94223747
:104E4000882321F00E9490368B0102C00FEF1FEFE4
:104E5000C8010196039708F09DC6D7FC9BC69C2D00
:104E6000E4E2F4E088E28E0F2491921709F492C6EE
:104E700031968E13F9CF0C94A63185E40E94223727
:104E8000811110C080E50E94F336882391F00E94C2
:104E9000C03660934D0270934E0280934F02909300
:104EA000500207C00E94A036882361F3E4E1F8E1D4
:104EB00071C089E40E94F336882381F00E94C036D5
:104EC0002CEA35EC47E25EE30E94C5D960934902C3
:104ED00070934A0280934B0290934C0284E40E94A8
:104EE000F336882381F00E94C0362CEA35EC47E285
:104EF0005EE30E9424D16093450270934602809342
:104F0000470290934802EDECFBE184918F010F5F23
:104F10001F4F882321F00E94B338F801F6CF40914B
:104F20004D0250914E0260914F027091500284E503
:104F300094E00E94C3892CEA35EC47E25EE360917D
:104F4000490270914A0280914B0290914C020E945A
:104F500024D1AB01BC0180E594E00E94A6892CEA33
:104F600035EC47E25EE36091450270914602809124
:104F70004702909148020E94C5D9AB01BC018CE464
:104F800094E00E94A6898AE00E94B33803C60E947A
:104F9000B338F80184918F010F5F1F4F8111F7CF54
:104FA00008E013E0D8018D918D01882309F444C8ED
:104FB0000E94B338F7CF85E40E942237882321F07E
:104FC0000E9490368B0102C000E010E083E40E9452
:104FD0002237882349F00E949036C155DF4F7983EC
:104FE0006883CF5AD04008C0E5E0F0E0C155DF4FFC
:104FF000F983E883CF5AD04085E50E94F336CB553C
:10500000DF4F8883C55AD040882339F00E94B136DB
:10501000CB55DF4F8883C55AD04017FD07C0C12C40
:10502000D12C86E1E82E83E4F82E06C0C12CD12CC9
:10503000BCE8EB2EB2E4FB2E83E50E9422378823E6
:1050400021F00E94C0366B017C010115110511F49D
:105050001092A80310925207109251070E94FEA0CE
:105060004B015C01012B19F409E113E00EC00CE2C5
:1050700013E0D8018D918D01882319F00E94B33877
:10508000F8CF8AE00E94B33885C5F80181918F017D
:10509000882319F00E94B338F8CFC701B6010E94E7
:1050A00095D1072E000C880B990B0E9466D9AD96FE
:1050B0006FAFAD97E5967FAFE597E9968FAFE9972C
:1050C000ED969FAFED978AE00E94B3380E9461A8E9
:1050D0008FE78093580A81E080931702C955DF4F0C
:1050E00088829982AA82BB82C75AD040CF54DF4FB0
:1050F00088829982AA82BB82C15BD040C057DF4FB1
:105100001882C059D040F0E4C058DF4FF883C0582F
:10511000D0402CE1CC57DF4F2883C458D04036E430
:10512000CC56DF4F3883C459D040C856DF4F188261
:10513000C859D040C857DF4F1882C858D040C4570C
:10514000DF4F1882CC58D040C456DF4F1882CC595C
:10515000D040CF55DF4F188219821A821B82C15A64
:10516000D040C356DF4F188219821A821B82CD5954
:10517000D040C12CD12C7601AFE74A2E512C612CA6
:10518000712C8FE790E0A0E0B0E0AC968CAF9DAFC3
:10519000AEAFBFAFAC97C555DF4F188219821A82E8
:1051A0001B82CB5AD04091E0CA55DF4F9883C65A34
:1051B000D040E2961FAE1EAEE297212C312C00E0CB
:1051C00010E080911702882309F433C20E94FEA0E8
:1051D000A8966CAF7DAF8EAF9FAFA8978091560A0F
:1051E000882309F4FDC00E9430A920907C133090E0
:1051F0007D1300917E1310917F139101A801C85671
:10520000DF4F6881C859D040C857DF4F7881C858F0
:10521000D040C457DF4F8881CC58D040C456DF4FB0
:105220009881CC59D0400E9460D987FF14C0C856DD
:10523000DF4F2882C859D040C857DF4F3882C8583E
:10524000D040C457DF4F0883CC58D040C456DF4FFE
:105250001883CC59D0409101A801C057DF4F688115
:10526000C059D040C058DF4F7881C058D040CC578B
:10527000DF4F8881C458D040CC56DF4F9881C45945
:10528000D0400E9480D21816A4F4C057DF4F288265
:10529000C059D040C058DF4F3882C058D040CC579A
:1052A000DF4F0883C458D040CC56DF4F1883C45911
:1052B000D040CA55DF4FA881C65AD040AD962FAD19
:1052C000AD97E5963FADE597E9964FADE997ED9639
:1052D0005FADED97B101C801AA2309F463C00E9434
:1052E00080D218160CF07CC0A8964CAD5DAD6EADAA
:1052F0007FADA897481959096A097B09DB01CA01E2
:1053000088589341A109B109B7FD6AC0AC968CAD2C
:105310009DADAEADBFADAC9784199509A609B7098F
:10532000B595A795979587958093580AC555DF4FF2
:10533000488359836A837B83CB5AD040AD96BFADF7
:10534000AD97C856DF4FB883C859D040E596EFAD4A
:10535000E597C857DF4FE883C858D040E996FFADBE
:10536000E997C457DF4FF883CC58D040ED962FAD66
:10537000ED97C456DF4F2883CC59D040A8968CAD0A
:105380009DADAEADBFADA897C955DF4F888399835A
:10539000AA83BB83C75AD040CA55DF4F1882C65A6A
:1053A000D0401EC00E9460D987FF1AC0A8968CAD5D
:1053B0009DADAEADBFADA897C955DF4F28813981EE
:1053C0004A815B81C75AD040821B930BA40BB50B5B
:1053D000AC01BD01485853416109710977FF67C4A9
:1053E00020E030E040EF51E4AD966FADAD97E5962B
:1053F0007FADE597E9968FADE997ED969FADED9777
:105400000E9437D09B01AC01B101C8010E9480D23B
:105410001816E4F4E9E5F5E084918F010F5F1F4F62
:10542000882321F00E94B338F801F6CF80910C0454
:1054300090910D04886090930D0480930C0440E0DB
:1054400060E08FE295E00E94EDA2A4C380E398EFB4
:10545000AFEFBFEFCF54DF4F288139814A815B81A5
:10546000C15BD040821B930BA40BB50BA8962CAD4F
:105470003DAD4EAD5FADA897820F931FA41FB51F22
:10548000B7FD13C00E94AABB8AE00E94B338A89659
:105490008CAD9DADAEADBFADA897CF54DF4F888327
:1054A0009983AA83BB83C15BD040A8968CAD9DAD88
:1054B000AEADBFADA897880F991FAA1FBB1FC955D6
:1054C000DF4F288139814A815B81C75AD040821BD6
:1054D000930BA40BB50B88199909AA09BB0981384C
:1054E0009F44A241B105E0F0E1E1F5E084918F0134
:1054F0000F5F1F4F882321F00E94B338F801F6CFC9
:1055000080910C0490910D04886090930D04809319
:105510000C0440E060E084EF94E00E94EDA23AC306
:10552000E2964EAD5FADE297C155DF4F888199811C
:10553000CF5AD040841795070CF078C0E7E9F4E023
:1055400084918F010F5F1F4F882321F00E94B33891
:10555000F801F6CFB701A60182E894E00E94C38962
:105560008AE00E94B338C356DF4F488159816A816F
:105570007B81CD59D0408DE694E00E94C3898AE0BA
:105580000E94B338CF55DF4F488159816A817B81B2
:10559000C15AD04088E594E00E94C3898AE00E9405
:1055A000B338CB55DF4F9881C55AD0409923A1F12C
:1055B000C0924D02D0924E02E0924F02F092500201
:1055C0002CEA35EC47E25EE3C356DF4F6881798110
:1055D0008A819B81CD59D0400E94C5D960934902F0
:1055E00070934A0280934B0290934C022CEA35EC64
:1055F00047E25EE3CF55DF4F688179818A819B81E5
:10560000C15AD0400E9424D1609345027093460253
:10561000809347029093480280910C0490910D046E
:10562000886090930D0480930C04B4C20E94983F4C
:10563000C8CD80911702811102C00E9461A880919B
:105640000C0490910D04886090930D0480930C04D9
:10565000A1C20E942EAD9EC281E00E943E359AC238
:1056600080E00E943E3596C286E50E94F33688238C
:1056700041F080910B0790910C07892B11F00E944B
:10568000DAC783E50E94F336182F882319F00E94A9
:10569000B136182F83E50E94F336882311F0812F4D
:1056A00064D7FF24F39480913607811101C0F12C57
:1056B000111103C0EDECFBE11AC0F110FBCFE4E1E6
:1056C000F8E184918F010F5F1F4F882321F00E9422
:1056D000B338F801F6CFEBEDF5E084918F010F5F61
:1056E0001F4F882339F30E94B338F801F6CF849115
:1056F0008F010F5F1F4F882321F00E94B338F801FC
:10570000F6CFF11003C064E073E002C060E073E024
:105710008DEC95E00E94F9898AE00E94B3383AC284
:105720000E9463B937C20E94A76A34C20E94D26D38
:1057300031C20E94A3682EC20E9463682BC2EDECA6
:10574000FBE184918F010F5F1F4F882321F00E949E
:10575000B338F801F6CFECE2F6E084918F010F5FE9
:105760001F4F882311F40C94E51F0E94B338F801F1
:10577000F4CFE5E1F6E084918F010F5F1F4F88239E
:1057800011F40C941C200E94B338F801F4CF40911E
:10579000CD125091CE126091CF127091D01282E151
:1057A00096E00E94C38980913607882371F0EAEF62
:1057B000F5E084918F010F5F1F4F882311F40C9443
:1057C0001C200E94B338F801F4CFE6E0F6E08491A3
:1057D0008F010F5F1F4F882311F40C941C200E942F
:1057E000B338F801F4CF85E40E94F336882329F01A
:1057F0000E94C0364B015C0105C0812C912CA12C6C
:1058000040ECB42E8AE50E942237882329F00E94BA
:10581000C0362B013C0106C0412C512C30E2632ED6
:1058200031E4732E88E50E942237882319F00E9404
:10583000C03604C060E070E080E490E424966CAF71
:105840007DAF8EAF9FAF249789E50E9422378823D2
:1058500019F00E94C03604C060E070E080E490E47B
:1058600068AB79AB8AAB9BAB85E50E94F3368823A6
:1058700029F00E94C0366B017C0106C0C12CD12CDE
:1058800028ECE22E22ECF22E8CE40E94F3368823E0
:1058900049F00E94C036A8966CAF7DAF8EAF9FAF27
:1058A000A89706C0A8961CAE1DAE1EAE1FAEA89748
:1058B00082E40E94223781110E9490360091CC0A26
:1058C0001091CD0A80915807811112C18091A107D2
:1058D00083FD13C020E030E0A901C701B6010E949A
:1058E00060D9811108C020E030E0A901C501B401F0
:1058F0000E9460D981110E9457CE81E080935807A1
:105900009091DC0A992321F01092DC0A8093AE0377
:105910000E94B5C040E061E086E197E00E94EDA200
:105920000E942EAD80E1E1EDF2E1AFEAB3E001903B
:105930000D928A95E1F720E030E0A901C501B4019C
:105940000E9460D98823E1F082D6A501940160917C
:105950006D0770916E0780916F07909170070E949C
:1059600037D060936D0770936E0780936F079093A5
:10597000700760E070E080E792E47DD60E942EAD73
:1059800020E030E0A901C301B2010E9480D21816C4
:10599000F4F480E090E0A0EAB0E489839A83AB83DA
:1059A000BC83A30192016091D9127091DA128091A7
:1059B000DB129091DC120E9437D068A379A38AA3EE
:1059C0009BA3BE016F5F7F4FCE018096E8D780E03A
:1059D00090E0A8ECB2E489839A83AB83BC839E01F8
:1059E0002F5F3F4F49ED52E1BE01605D7F4FCE0119
:1059F000805C9F4FF2D620E030E0A901C701B601DC
:105A00000E9460D9882329F140E061E083EE96E0AE
:105A10000E94EDA280E00E948D8319D6A701960115
:105A200060916D0770916E0780916F07909170077C
:105A30000E9437D060936D0770936E0780936F0755
:105A40009093700760E070E080E291E414D60E94C9
:105A50002EAD40E060E08CE796E00E94EDA2E2E629
:105A6000F6E084917F01AFEFEA1AFA0A882321F069
:105A70000E94B338F701F5CF80E00E948D83E8E4FF
:105A8000F6E084917F01BFEFEB1AFB0A882321F037
:105A90000E94B338F701F5CF0E944B8364E670E0B3
:105AA00080E090E00E9454A10E94FEA0DC01CB01A6
:105AB00088539045AF4FBF4F8093520A9093530A3B
:105AC000A093540AB093550A1092A50AE6E3F6E0B3
:105AD00084917F012FEFE21AF20A882309F4A6C20B
